{
  "contractName": "LandSale",
  "abi": [
    {
      "anonymous": false,
      "inputs": [
        {
          "indexed": true,
          "internalType": "address",
          "name": "owner",
          "type": "address"
        },
        {
          "indexed": true,
          "internalType": "address",
          "name": "approved",
          "type": "address"
        },
        {
          "indexed": true,
          "internalType": "uint256",
          "name": "tokenId",
          "type": "uint256"
        }
      ],
      "name": "Approval",
      "type": "event"
    },
    {
      "anonymous": false,
      "inputs": [
        {
          "indexed": true,
          "internalType": "address",
          "name": "owner",
          "type": "address"
        },
        {
          "indexed": true,
          "internalType": "address",
          "name": "operator",
          "type": "address"
        },
        {
          "indexed": false,
          "internalType": "bool",
          "name": "approved",
          "type": "bool"
        }
      ],
      "name": "ApprovalForAll",
      "type": "event"
    },
    {
      "anonymous": false,
      "inputs": [
        {
          "indexed": true,
          "internalType": "address",
          "name": "from",
          "type": "address"
        },
        {
          "indexed": true,
          "internalType": "address",
          "name": "to",
          "type": "address"
        },
        {
          "indexed": true,
          "internalType": "uint256",
          "name": "tokenId",
          "type": "uint256"
        }
      ],
      "name": "Transfer",
      "type": "event"
    },
    {
      "stateMutability": "nonpayable",
      "type": "fallback"
    },
    {
      "inputs": [
        {
          "internalType": "address",
          "name": "to",
          "type": "address"
        },
        {
          "internalType": "uint256",
          "name": "tokenId",
          "type": "uint256"
        }
      ],
      "name": "approve",
      "outputs": [],
      "stateMutability": "nonpayable",
      "type": "function"
    },
    {
      "inputs": [
        {
          "internalType": "address",
          "name": "owner",
          "type": "address"
        }
      ],
      "name": "balanceOf",
      "outputs": [
        {
          "internalType": "uint256",
          "name": "",
          "type": "uint256"
        }
      ],
      "stateMutability": "view",
      "type": "function",
      "constant": true
    },
    {
      "inputs": [
        {
          "internalType": "uint256",
          "name": "tokenId",
          "type": "uint256"
        }
      ],
      "name": "getApproved",
      "outputs": [
        {
          "internalType": "address",
          "name": "",
          "type": "address"
        }
      ],
      "stateMutability": "view",
      "type": "function",
      "constant": true
    },
    {
      "inputs": [
        {
          "internalType": "uint256",
          "name": "landID",
          "type": "uint256"
        }
      ],
      "name": "getLandDetails",
      "outputs": [
        {
          "components": [
            {
              "internalType": "uint256",
              "name": "surveyNo",
              "type": "uint256"
            },
            {
              "internalType": "string",
              "name": "district",
              "type": "string"
            },
            {
              "internalType": "string",
              "name": "taluk",
              "type": "string"
            },
            {
              "internalType": "string",
              "name": "village",
              "type": "string"
            },
            {
              "internalType": "uint256",
              "name": "blockNo",
              "type": "uint256"
            },
            {
              "internalType": "uint256",
              "name": "landValue",
              "type": "uint256"
            },
            {
              "internalType": "uint256",
              "name": "area",
              "type": "uint256"
            },
            {
              "internalType": "bool",
              "name": "salesStatus",
              "type": "bool"
            }
          ],
          "internalType": "struct LandRegistration.LandDetail",
          "name": "",
          "type": "tuple"
        }
      ],
      "stateMutability": "view",
      "type": "function",
      "constant": true
    },
    {
      "inputs": [
        {
          "internalType": "address",
          "name": "owner",
          "type": "address"
        },
        {
          "internalType": "address",
          "name": "operator",
          "type": "address"
        }
      ],
      "name": "isApprovedForAll",
      "outputs": [
        {
          "internalType": "bool",
          "name": "",
          "type": "bool"
        }
      ],
      "stateMutability": "view",
      "type": "function",
      "constant": true
    },
    {
      "inputs": [],
      "name": "name",
      "outputs": [
        {
          "internalType": "string",
          "name": "",
          "type": "string"
        }
      ],
      "stateMutability": "view",
      "type": "function",
      "constant": true
    },
    {
      "inputs": [
        {
          "internalType": "uint256",
          "name": "tokenId",
          "type": "uint256"
        }
      ],
      "name": "ownerOf",
      "outputs": [
        {
          "internalType": "address",
          "name": "",
          "type": "address"
        }
      ],
      "stateMutability": "view",
      "type": "function",
      "constant": true
    },
    {
      "inputs": [
        {
          "internalType": "uint256",
          "name": "surveyNo",
          "type": "uint256"
        },
        {
          "internalType": "string",
          "name": "district",
          "type": "string"
        },
        {
          "internalType": "string",
          "name": "taluk",
          "type": "string"
        },
        {
          "internalType": "string",
          "name": "village",
          "type": "string"
        },
        {
          "internalType": "uint256",
          "name": "blockNo",
          "type": "uint256"
        },
        {
          "internalType": "uint256",
          "name": "landValue",
          "type": "uint256"
        },
        {
          "internalType": "uint256",
          "name": "area",
          "type": "uint256"
        }
      ],
      "name": "registerNewLand",
      "outputs": [],
      "stateMutability": "nonpayable",
      "type": "function"
    },
    {
      "inputs": [],
      "name": "registeredLandCount",
      "outputs": [
        {
          "internalType": "uint256",
          "name": "",
          "type": "uint256"
        }
      ],
      "stateMutability": "view",
      "type": "function",
      "constant": true
    },
    {
      "inputs": [
        {
          "internalType": "address",
          "name": "from",
          "type": "address"
        },
        {
          "internalType": "address",
          "name": "to",
          "type": "address"
        },
        {
          "internalType": "uint256",
          "name": "tokenId",
          "type": "uint256"
        }
      ],
      "name": "safeTransferFrom",
      "outputs": [],
      "stateMutability": "nonpayable",
      "type": "function"
    },
    {
      "inputs": [
        {
          "internalType": "address",
          "name": "from",
          "type": "address"
        },
        {
          "internalType": "address",
          "name": "to",
          "type": "address"
        },
        {
          "internalType": "uint256",
          "name": "tokenId",
          "type": "uint256"
        },
        {
          "internalType": "bytes",
          "name": "data",
          "type": "bytes"
        }
      ],
      "name": "safeTransferFrom",
      "outputs": [],
      "stateMutability": "nonpayable",
      "type": "function"
    },
    {
      "inputs": [
        {
          "internalType": "address",
          "name": "operator",
          "type": "address"
        },
        {
          "internalType": "bool",
          "name": "approved",
          "type": "bool"
        }
      ],
      "name": "setApprovalForAll",
      "outputs": [],
      "stateMutability": "nonpayable",
      "type": "function"
    },
    {
      "inputs": [
        {
          "internalType": "bytes4",
          "name": "interfaceId",
          "type": "bytes4"
        }
      ],
      "name": "supportsInterface",
      "outputs": [
        {
          "internalType": "bool",
          "name": "",
          "type": "bool"
        }
      ],
      "stateMutability": "view",
      "type": "function",
      "constant": true
    },
    {
      "inputs": [],
      "name": "symbol",
      "outputs": [
        {
          "internalType": "string",
          "name": "",
          "type": "string"
        }
      ],
      "stateMutability": "view",
      "type": "function",
      "constant": true
    },
    {
      "inputs": [
        {
          "internalType": "uint256",
          "name": "tokenId",
          "type": "uint256"
        }
      ],
      "name": "tokenURI",
      "outputs": [
        {
          "internalType": "string",
          "name": "",
          "type": "string"
        }
      ],
      "stateMutability": "view",
      "type": "function",
      "constant": true
    },
    {
      "inputs": [
        {
          "internalType": "address",
          "name": "from",
          "type": "address"
        },
        {
          "internalType": "address",
          "name": "to",
          "type": "address"
        },
        {
          "internalType": "uint256",
          "name": "tokenId",
          "type": "uint256"
        }
      ],
      "name": "transferFrom",
      "outputs": [],
      "stateMutability": "nonpayable",
      "type": "function"
    },
    {
      "inputs": [
        {
          "internalType": "uint256",
          "name": "landID",
          "type": "uint256"
        }
      ],
      "name": "bid",
      "outputs": [],
      "stateMutability": "payable",
      "type": "function",
      "payable": true
    },
    {
      "inputs": [
        {
          "internalType": "uint256",
          "name": "landID",
          "type": "uint256"
        }
      ],
      "name": "acceptBid",
      "outputs": [],
      "stateMutability": "nonpayable",
      "type": "function"
    }
  ],
  "bytecode": "0x608060405260006007553480156200001657600080fd5b506040518060400160405280600481526020017f4c616e64000000000000000000000000000000000000000000000000000000008152506040518060400160405280600381526020017f4c4e440000000000000000000000000000000000000000000000000000000000815250816000908162000094919062000329565b508060019081620000a6919062000329565b50505062000410565b600081519050919050565b7f4e487b7100000000000000000000000000000000000000000000000000000000600052604160045260246000fd5b7f4e487b7100000000000000000000000000000000000000000000000000000000600052602260045260246000fd5b600060028204905060018216806200013157607f821691505b602082108103620001475762000146620000e9565b5b50919050565b60008190508160005260206000209050919050565b60006020601f8301049050919050565b600082821b905092915050565b600060088302620001b17fffffffffffffffffffffffffffffffffffffffffffffffffffffffffffffffff8262000172565b620001bd868362000172565b95508019841693508086168417925050509392505050565b6000819050919050565b6000819050919050565b60006200020a62000204620001fe84620001d5565b620001df565b620001d5565b9050919050565b6000819050919050565b6200022683620001e9565b6200023e620002358262000211565b8484546200017f565b825550505050565b600090565b6200025562000246565b620002628184846200021b565b505050565b5b818110156200028a576200027e6000826200024b565b60018101905062000268565b5050565b601f821115620002d957620002a3816200014d565b620002ae8462000162565b81016020851015620002be578190505b620002d6620002cd8562000162565b83018262000267565b50505b505050565b600082821c905092915050565b6000620002fe60001984600802620002de565b1980831691505092915050565b6000620003198383620002eb565b9150826002028217905092915050565b6200033482620000af565b67ffffffffffffffff81111562000350576200034f620000ba565b5b6200035c825462000118565b620003698282856200028e565b600060209050601f831160018114620003a157600084156200038c578287015190505b6200039885826200030b565b86555062000408565b601f198416620003b1866200014d565b60005b82811015620003db57848901518255600182019150602085019450602081019050620003b4565b86831015620003fb5784890151620003f7601f891682620002eb565b8355505b6001600288020188555050505b505050505050565b61370380620004206000396000f3fe60806040526004361061010d5760003560e01c806370a0823111610095578063b88d4fde11610064578063b88d4fde1461037d578063c87b56dd146103a6578063e985e9c5146103e3578063f077066514610420578063fe0cb7dc146104495761010e565b806370a08231146102c157806395d89b41146102fe578063a22cb46514610329578063a7613a7d146103525761010e565b806323b872dd116100dc57806323b872dd146101ed5780632b1fd58a1461021657806342842e0e1461023f578063454a2ab3146102685780636352211e146102845761010e565b806301ffc9a71461011f57806306fdde031461015c578063081812fc14610187578063095ea7b3146101c45761010e565b5b34801561011a57600080fd5b600080fd5b34801561012b57600080fd5b5061014660048036038101906101419190612328565b610486565b6040516101539190612370565b60405180910390f35b34801561016857600080fd5b50610171610568565b60405161017e919061241b565b60405180910390f35b34801561019357600080fd5b506101ae60048036038101906101a99190612473565b6105fa565b6040516101bb91906124e1565b60405180910390f35b3480156101d057600080fd5b506101eb60048036038101906101e69190612528565b610640565b005b3480156101f957600080fd5b50610214600480360381019061020f9190612568565b610757565b005b34801561022257600080fd5b5061023d60048036038101906102389190612473565b6107b7565b005b34801561024b57600080fd5b5061026660048036038101906102619190612568565b610aba565b005b610282600480360381019061027d9190612473565b610ada565b005b34801561029057600080fd5b506102ab60048036038101906102a69190612473565b610d82565b6040516102b891906124e1565b60405180910390f35b3480156102cd57600080fd5b506102e860048036038101906102e391906125bb565b610e08565b6040516102f591906125f7565b60405180910390f35b34801561030a57600080fd5b50610313610ebf565b604051610320919061241b565b60405180910390f35b34801561033557600080fd5b50610350600480360381019061034b919061263e565b610f51565b005b34801561035e57600080fd5b50610367610f67565b60405161037491906125f7565b60405180910390f35b34801561038957600080fd5b506103a4600480360381019061039f91906127b3565b610f6d565b005b3480156103b257600080fd5b506103cd60048036038101906103c89190612473565b610fcf565b6040516103da919061241b565b60405180910390f35b3480156103ef57600080fd5b5061040a60048036038101906104059190612836565b611037565b6040516104179190612370565b60405180910390f35b34801561042c57600080fd5b5061044760048036038101906104429190612917565b6110cb565b005b34801561045557600080fd5b50610470600480360381019061046b9190612473565b6111d9565b60405161047d9190612b33565b60405180910390f35b60007f80ac58cd000000000000000000000000000000000000000000000000000000007bffffffffffffffffffffffffffffffffffffffffffffffffffffffff1916827bffffffffffffffffffffffffffffffffffffffffffffffffffffffff1916148061055157507f5b5e139f000000000000000000000000000000000000000000000000000000007bffffffffffffffffffffffffffffffffffffffffffffffffffffffff1916827bffffffffffffffffffffffffffffffffffffffffffffffffffffffff1916145b80610561575061056082611400565b5b9050919050565b60606000805461057790612b84565b80601f01602080910402602001604051908101604052809291908181526020018280546105a390612b84565b80156105f05780601f106105c5576101008083540402835291602001916105f0565b820191906000526020600020905b8154815290600101906020018083116105d357829003601f168201915b5050505050905090565b60006106058261146a565b6004600083815260200190815260200160002060009054906101000a900473ffffffffffffffffffffffffffffffffffffffff169050919050565b600061064b82610d82565b90508073ffffffffffffffffffffffffffffffffffffffff168373ffffffffffffffffffffffffffffffffffffffff16036106bb576040517f08c379a00000000000000000000000000000000000000000000000000000000081526004016106b290612c27565b60405180910390fd5b8073ffffffffffffffffffffffffffffffffffffffff166106da6114b5565b73ffffffffffffffffffffffffffffffffffffffff1614806107095750610708816107036114b5565b611037565b5b610748576040517f08c379a000000000000000000000000000000000000000000000000000000000815260040161073f90612cb9565b60405180910390fd5b61075283836114bd565b505050565b6107686107626114b5565b82611576565b6107a7576040517f08c379a000000000000000000000000000000000000000000000000000000000815260040161079e90612d4b565b60405180910390fd5b6107b283838361160b565b505050565b3373ffffffffffffffffffffffffffffffffffffffff166108fc60096000848152602001908152602001600020600001549081150290604051600060405180830381858888f19350505050158015610813573d6000803e3d6000fd5b50610855336009600084815260200190815260200160002060010160009054906101000a900473ffffffffffffffffffffffffffffffffffffffff1683610aba565b60005b6009600083815260200190815260200160002060030180549050811015610a87576009600083815260200190815260200160002060010160009054906101000a900473ffffffffffffffffffffffffffffffffffffffff1673ffffffffffffffffffffffffffffffffffffffff166009600084815260200190815260200160002060030182815481106108ee576108ed612d6b565b5b9060005260206000200160009054906101000a900473ffffffffffffffffffffffffffffffffffffffff1673ffffffffffffffffffffffffffffffffffffffff160315610a745760096000838152602001908152602001600020600301818154811061095d5761095c612d6b565b5b9060005260206000200160009054906101000a900473ffffffffffffffffffffffffffffffffffffffff1673ffffffffffffffffffffffffffffffffffffffff166108fc6009600085815260200190815260200160002060020160006009600087815260200190815260200160002060030185815481106109e1576109e0612d6b565b5b9060005260206000200160009054906101000a900473ffffffffffffffffffffffffffffffffffffffff1673ffffffffffffffffffffffffffffffffffffffff1673ffffffffffffffffffffffffffffffffffffffff168152602001908152602001600020549081150290604051600060405180830381858888f19350505050158015610a72573d6000803e3d6000fd5b505b8080610a7f90612dc9565b915050610858565b5060016006600083815260200190815260200160002060070160006101000a81548160ff02191690831515021790555050565b610ad583838360405180602001604052806000815250610f6d565b505050565b610ae381610d82565b73ffffffffffffffffffffffffffffffffffffffff163373ffffffffffffffffffffffffffffffffffffffff1603610b1a57600080fd5b6009600082815260200190815260200160002060000154346009600084815260200190815260200160002060020160003373ffffffffffffffffffffffffffffffffffffffff1673ffffffffffffffffffffffffffffffffffffffff16815260200190815260200160002054610b909190612e11565b11610bd0576040517f08c379a0000000000000000000000000000000000000000000000000000000008152600401610bc790612e91565b60405180910390fd5b336009600083815260200190815260200160002060010160006101000a81548173ffffffffffffffffffffffffffffffffffffffff021916908373ffffffffffffffffffffffffffffffffffffffff16021790555060096000828152602001908152602001600020600301339080600181540180825580915050600190039060005260206000200160009091909190916101000a81548173ffffffffffffffffffffffffffffffffffffffff021916908373ffffffffffffffffffffffffffffffffffffffff160217905550346009600083815260200190815260200160002060020160003373ffffffffffffffffffffffffffffffffffffffff1673ffffffffffffffffffffffffffffffffffffffff16815260200190815260200160002054610cfb9190612e11565b6009600083815260200190815260200160002060000181905550346009600083815260200190815260200160002060020160003373ffffffffffffffffffffffffffffffffffffffff1673ffffffffffffffffffffffffffffffffffffffff1681526020019081526020016000206000828254610d789190612e11565b9250508190555050565b600080610d8e83611904565b9050600073ffffffffffffffffffffffffffffffffffffffff168173ffffffffffffffffffffffffffffffffffffffff1603610dff576040517f08c379a0000000000000000000000000000000000000000000000000000000008152600401610df690612efd565b60405180910390fd5b80915050919050565b60008073ffffffffffffffffffffffffffffffffffffffff168273ffffffffffffffffffffffffffffffffffffffff1603610e78576040517f08c379a0000000000000000000000000000000000000000000000000000000008152600401610e6f90612f8f565b60405180910390fd5b600360008373ffffffffffffffffffffffffffffffffffffffff1673ffffffffffffffffffffffffffffffffffffffff168152602001908152602001600020549050919050565b606060018054610ece90612b84565b80601f0160208091040260200160405190810160405280929190818152602001828054610efa90612b84565b8015610f475780601f10610f1c57610100808354040283529160200191610f47565b820191906000526020600020905b815481529060010190602001808311610f2a57829003601f168201915b5050505050905090565b610f63610f5c6114b5565b8383611941565b5050565b60075481565b610f7e610f786114b5565b83611576565b610fbd576040517f08c379a0000000000000000000000000000000000000000000000000000000008152600401610fb490612d4b565b60405180910390fd5b610fc984848484611aad565b50505050565b6060610fda8261146a565b6000610fe4611b09565b90506000815111611004576040518060200160405280600081525061102f565b8061100e84611b20565b60405160200161101f929190612feb565b6040516020818303038152906040525b915050919050565b6000600560008473ffffffffffffffffffffffffffffffffffffffff1673ffffffffffffffffffffffffffffffffffffffff16815260200190815260200160002060008373ffffffffffffffffffffffffffffffffffffffff1673ffffffffffffffffffffffffffffffffffffffff16815260200190815260200160002060009054906101000a900460ff16905092915050565b6040518061010001604052808881526020018781526020018681526020018581526020018481526020018381526020018281526020016000151581525060066000600754815260200190815260200160002060008201518160000155602082015181600101908161113c91906131bb565b50604082015181600201908161115291906131bb565b50606082015181600301908161116891906131bb565b506080820151816004015560a0820151816005015560c0820151816006015560e08201518160070160006101000a81548160ff0219169083151502179055509050506111b633600754611bee565b6001600760008282546111c99190612e11565b9250508190555050505050505050565b6111e1612275565b60066000838152602001908152602001600020604051806101000160405290816000820154815260200160018201805461121a90612b84565b80601f016020809104026020016040519081016040528092919081815260200182805461124690612b84565b80156112935780601f1061126857610100808354040283529160200191611293565b820191906000526020600020905b81548152906001019060200180831161127657829003601f168201915b505050505081526020016002820180546112ac90612b84565b80601f01602080910402602001604051908101604052809291908181526020018280546112d890612b84565b80156113255780601f106112fa57610100808354040283529160200191611325565b820191906000526020600020905b81548152906001019060200180831161130857829003601f168201915b5050505050815260200160038201805461133e90612b84565b80601f016020809104026020016040519081016040528092919081815260200182805461136a90612b84565b80156113b75780601f1061138c576101008083540402835291602001916113b7565b820191906000526020600020905b81548152906001019060200180831161139a57829003601f168201915b505050505081526020016004820154815260200160058201548152602001600682015481526020016007820160009054906101000a900460ff1615151515815250509050919050565b60007f01ffc9a7000000000000000000000000000000000000000000000000000000007bffffffffffffffffffffffffffffffffffffffffffffffffffffffff1916827bffffffffffffffffffffffffffffffffffffffffffffffffffffffff1916149050919050565b61147381611e0b565b6114b2576040517f08c379a00000000000000000000000000000000000000000000000000000000081526004016114a990612efd565b60405180910390fd5b50565b600033905090565b816004600083815260200190815260200160002060006101000a81548173ffffffffffffffffffffffffffffffffffffffff021916908373ffffffffffffffffffffffffffffffffffffffff160217905550808273ffffffffffffffffffffffffffffffffffffffff1661153083610d82565b73ffffffffffffffffffffffffffffffffffffffff167f8c5be1e5ebec7d5bd14f71427d1e84f3dd0314c0f7b2291e5b200ac8c7c3b92560405160405180910390a45050565b60008061158283610d82565b90508073ffffffffffffffffffffffffffffffffffffffff168473ffffffffffffffffffffffffffffffffffffffff1614806115c457506115c38185611037565b5b8061160257508373ffffffffffffffffffffffffffffffffffffffff166115ea846105fa565b73ffffffffffffffffffffffffffffffffffffffff16145b91505092915050565b8273ffffffffffffffffffffffffffffffffffffffff1661162b82610d82565b73ffffffffffffffffffffffffffffffffffffffff1614611681576040517f08c379a0000000000000000000000000000000000000000000000000000000008152600401611678906132ff565b60405180910390fd5b600073ffffffffffffffffffffffffffffffffffffffff168273ffffffffffffffffffffffffffffffffffffffff16036116f0576040517f08c379a00000000000000000000000000000000000000000000000000000000081526004016116e790613391565b60405180910390fd5b6116fd8383836001611e4c565b8273ffffffffffffffffffffffffffffffffffffffff1661171d82610d82565b73ffffffffffffffffffffffffffffffffffffffff1614611773576040517f08c379a000000000000000000000000000000000000000000000000000000000815260040161176a906132ff565b60405180910390fd5b6004600082815260200190815260200160002060006101000a81549073ffffffffffffffffffffffffffffffffffffffff02191690556001600360008573ffffffffffffffffffffffffffffffffffffffff1673ffffffffffffffffffffffffffffffffffffffff168152602001908152602001600020600082825403925050819055506001600360008473ffffffffffffffffffffffffffffffffffffffff1673ffffffffffffffffffffffffffffffffffffffff16815260200190815260200160002060008282540192505081905550816002600083815260200190815260200160002060006101000a81548173ffffffffffffffffffffffffffffffffffffffff021916908373ffffffffffffffffffffffffffffffffffffffff160217905550808273ffffffffffffffffffffffffffffffffffffffff168473ffffffffffffffffffffffffffffffffffffffff167fddf252ad1be2c89b69c2b068fc378daa952ba7f163c4a11628f55a4df523b3ef60405160405180910390a46118ff8383836001611f72565b505050565b60006002600083815260200190815260200160002060009054906101000a900473ffffffffffffffffffffffffffffffffffffffff169050919050565b8173ffffffffffffffffffffffffffffffffffffffff168373ffffffffffffffffffffffffffffffffffffffff16036119af576040517f08c379a00000000000000000000000000000000000000000000000000000000081526004016119a6906133fd565b60405180910390fd5b80600560008573ffffffffffffffffffffffffffffffffffffffff1673ffffffffffffffffffffffffffffffffffffffff16815260200190815260200160002060008473ffffffffffffffffffffffffffffffffffffffff1673ffffffffffffffffffffffffffffffffffffffff16815260200190815260200160002060006101000a81548160ff0219169083151502179055508173ffffffffffffffffffffffffffffffffffffffff168373ffffffffffffffffffffffffffffffffffffffff167f17307eab39ab6107e8899845ad3d59bd9653f200f220920489ca2b5937696c3183604051611aa09190612370565b60405180910390a3505050565b611ab884848461160b565b611ac484848484611f78565b611b03576040517f08c379a0000000000000000000000000000000000000000000000000000000008152600401611afa9061348f565b60405180910390fd5b50505050565b606060405180602001604052806000815250905090565b606060006001611b2f846120ff565b01905060008167ffffffffffffffff811115611b4e57611b4d612688565b5b6040519080825280601f01601f191660200182016040528015611b805781602001600182028036833780820191505090505b509050600082602001820190505b600115611be3578080600190039150507f3031323334353637383961626364656600000000000000000000000000000000600a86061a8153600a8581611bd757611bd66134af565b5b04945060008503611b8e575b819350505050919050565b600073ffffffffffffffffffffffffffffffffffffffff168273ffffffffffffffffffffffffffffffffffffffff1603611c5d576040517f08c379a0000000000000000000000000000000000000000000000000000000008152600401611c549061352a565b60405180910390fd5b611c6681611e0b565b15611ca6576040517f08c379a0000000000000000000000000000000000000000000000000000000008152600401611c9d90613596565b60405180910390fd5b611cb4600083836001611e4c565b611cbd81611e0b565b15611cfd576040517f08c379a0000000000000000000000000000000000000000000000000000000008152600401611cf490613596565b60405180910390fd5b6001600360008473ffffffffffffffffffffffffffffffffffffffff1673ffffffffffffffffffffffffffffffffffffffff16815260200190815260200160002060008282540192505081905550816002600083815260200190815260200160002060006101000a81548173ffffffffffffffffffffffffffffffffffffffff021916908373ffffffffffffffffffffffffffffffffffffffff160217905550808273ffffffffffffffffffffffffffffffffffffffff16600073ffffffffffffffffffffffffffffffffffffffff167fddf252ad1be2c89b69c2b068fc378daa952ba7f163c4a11628f55a4df523b3ef60405160405180910390a4611e07600083836001611f72565b5050565b60008073ffffffffffffffffffffffffffffffffffffffff16611e2d83611904565b73ffffffffffffffffffffffffffffffffffffffff1614159050919050565b6001811115611f6c57600073ffffffffffffffffffffffffffffffffffffffff168473ffffffffffffffffffffffffffffffffffffffff1614611ee05780600360008673ffffffffffffffffffffffffffffffffffffffff1673ffffffffffffffffffffffffffffffffffffffff1681526020019081526020016000206000828254611ed891906135b6565b925050819055505b600073ffffffffffffffffffffffffffffffffffffffff168373ffffffffffffffffffffffffffffffffffffffff1614611f6b5780600360008573ffffffffffffffffffffffffffffffffffffffff1673ffffffffffffffffffffffffffffffffffffffff1681526020019081526020016000206000828254611f639190612e11565b925050819055505b5b50505050565b50505050565b6000611f998473ffffffffffffffffffffffffffffffffffffffff16612252565b156120f2578373ffffffffffffffffffffffffffffffffffffffff1663150b7a02611fc26114b5565b8786866040518563ffffffff1660e01b8152600401611fe4949392919061363f565b6020604051808303816000875af192505050801561202057506040513d601f19601f8201168201806040525081019061201d91906136a0565b60015b6120a2573d8060008114612050576040519150601f19603f3d011682016040523d82523d6000602084013e612055565b606091505b50600081510361209a576040517f08c379a00000000000000000000000000000000000000000000000000000000081526004016120919061348f565b60405180910390fd5b805181602001fd5b63150b7a0260e01b7bffffffffffffffffffffffffffffffffffffffffffffffffffffffff1916817bffffffffffffffffffffffffffffffffffffffffffffffffffffffff1916149150506120f7565b600190505b949350505050565b600080600090507a184f03e93ff9f4daa797ed6e38ed64bf6a1f010000000000000000831061215d577a184f03e93ff9f4daa797ed6e38ed64bf6a1f0100000000000000008381612153576121526134af565b5b0492506040810190505b6d04ee2d6d415b85acef8100000000831061219a576d04ee2d6d415b85acef810000000083816121905761218f6134af565b5b0492506020810190505b662386f26fc1000083106121c957662386f26fc1000083816121bf576121be6134af565b5b0492506010810190505b6305f5e10083106121f2576305f5e10083816121e8576121e76134af565b5b0492506008810190505b612710831061221757612710838161220d5761220c6134af565b5b0492506004810190505b6064831061223a57606483816122305761222f6134af565b5b0492506002810190505b600a8310612249576001810190505b80915050919050565b6000808273ffffffffffffffffffffffffffffffffffffffff163b119050919050565b604051806101000160405280600081526020016060815260200160608152602001606081526020016000815260200160008152602001600081526020016000151581525090565b6000604051905090565b600080fd5b600080fd5b60007fffffffff0000000000000000000000000000000000000000000000000000000082169050919050565b612305816122d0565b811461231057600080fd5b50565b600081359050612322816122fc565b92915050565b60006020828403121561233e5761233d6122c6565b5b600061234c84828501612313565b91505092915050565b60008115159050919050565b61236a81612355565b82525050565b60006020820190506123856000830184612361565b92915050565b600081519050919050565b600082825260208201905092915050565b60005b838110156123c55780820151818401526020810190506123aa565b60008484015250505050565b6000601f19601f8301169050919050565b60006123ed8261238b565b6123f78185612396565b93506124078185602086016123a7565b612410816123d1565b840191505092915050565b6000602082019050818103600083015261243581846123e2565b905092915050565b6000819050919050565b6124508161243d565b811461245b57600080fd5b50565b60008135905061246d81612447565b92915050565b600060208284031215612489576124886122c6565b5b60006124978482850161245e565b91505092915050565b600073ffffffffffffffffffffffffffffffffffffffff82169050919050565b60006124cb826124a0565b9050919050565b6124db816124c0565b82525050565b60006020820190506124f660008301846124d2565b92915050565b612505816124c0565b811461251057600080fd5b50565b600081359050612522816124fc565b92915050565b6000806040838503121561253f5761253e6122c6565b5b600061254d85828601612513565b925050602061255e8582860161245e565b9150509250929050565b600080600060608486031215612581576125806122c6565b5b600061258f86828701612513565b93505060206125a086828701612513565b92505060406125b18682870161245e565b9150509250925092565b6000602082840312156125d1576125d06122c6565b5b60006125df84828501612513565b91505092915050565b6125f18161243d565b82525050565b600060208201905061260c60008301846125e8565b92915050565b61261b81612355565b811461262657600080fd5b50565b60008135905061263881612612565b92915050565b60008060408385031215612655576126546122c6565b5b600061266385828601612513565b925050602061267485828601612629565b9150509250929050565b600080fd5b600080fd5b7f4e487b7100000000000000000000000000000000000000000000000000000000600052604160045260246000fd5b6126c0826123d1565b810181811067ffffffffffffffff821117156126df576126de612688565b5b80604052505050565b60006126f26122bc565b90506126fe82826126b7565b919050565b600067ffffffffffffffff82111561271e5761271d612688565b5b612727826123d1565b9050602081019050919050565b82818337600083830152505050565b600061275661275184612703565b6126e8565b90508281526020810184848401111561277257612771612683565b5b61277d848285612734565b509392505050565b600082601f83011261279a5761279961267e565b5b81356127aa848260208601612743565b91505092915050565b600080600080608085870312156127cd576127cc6122c6565b5b60006127db87828801612513565b94505060206127ec87828801612513565b93505060406127fd8782880161245e565b925050606085013567ffffffffffffffff81111561281e5761281d6122cb565b5b61282a87828801612785565b91505092959194509250565b6000806040838503121561284d5761284c6122c6565b5b600061285b85828601612513565b925050602061286c85828601612513565b9150509250929050565b600067ffffffffffffffff82111561289157612890612688565b5b61289a826123d1565b9050602081019050919050565b60006128ba6128b584612876565b6126e8565b9050828152602081018484840111156128d6576128d5612683565b5b6128e1848285612734565b509392505050565b600082601f8301126128fe576128fd61267e565b5b813561290e8482602086016128a7565b91505092915050565b600080600080600080600060e0888a031215612936576129356122c6565b5b60006129448a828b0161245e565b975050602088013567ffffffffffffffff811115612965576129646122cb565b5b6129718a828b016128e9565b965050604088013567ffffffffffffffff811115612992576129916122cb565b5b61299e8a828b016128e9565b955050606088013567ffffffffffffffff8111156129bf576129be6122cb565b5b6129cb8a828b016128e9565b94505060806129dc8a828b0161245e565b93505060a06129ed8a828b0161245e565b92505060c06129fe8a828b0161245e565b91505092959891949750929550565b612a168161243d565b82525050565b600082825260208201905092915050565b6000612a388261238b565b612a428185612a1c565b9350612a528185602086016123a7565b612a5b816123d1565b840191505092915050565b612a6f81612355565b82525050565b600061010083016000830151612a8e6000860182612a0d565b5060208301518482036020860152612aa68282612a2d565b91505060408301518482036040860152612ac08282612a2d565b91505060608301518482036060860152612ada8282612a2d565b9150506080830151612aef6080860182612a0d565b5060a0830151612b0260a0860182612a0d565b5060c0830151612b1560c0860182612a0d565b5060e0830151612b2860e0860182612a66565b508091505092915050565b60006020820190508181036000830152612b4d8184612a75565b905092915050565b7f4e487b7100000000000000000000000000000000000000000000000000000000600052602260045260246000fd5b60006002820490506001821680612b9c57607f821691505b602082108103612baf57612bae612b55565b5b50919050565b7f4552433732313a20617070726f76616c20746f2063757272656e74206f776e6560008201527f7200000000000000000000000000000000000000000000000000000000000000602082015250565b6000612c11602183612396565b9150612c1c82612bb5565b604082019050919050565b60006020820190508181036000830152612c4081612c04565b9050919050565b7f4552433732313a20617070726f76652063616c6c6572206973206e6f7420746f60008201527f6b656e206f776e6572206f7220617070726f76656420666f7220616c6c000000602082015250565b6000612ca3603d83612396565b9150612cae82612c47565b604082019050919050565b60006020820190508181036000830152612cd281612c96565b9050919050565b7f4552433732313a2063616c6c6572206973206e6f7420746f6b656e206f776e6560008201527f72206f7220617070726f76656400000000000000000000000000000000000000602082015250565b6000612d35602d83612396565b9150612d4082612cd9565b604082019050919050565b60006020820190508181036000830152612d6481612d28565b9050919050565b7f4e487b7100000000000000000000000000000000000000000000000000000000600052603260045260246000fd5b7f4e487b7100000000000000000000000000000000000000000000000000000000600052601160045260246000fd5b6000612dd48261243d565b91507fffffffffffffffffffffffffffffffffffffffffffffffffffffffffffffffff8203612e0657612e05612d9a565b5b600182019050919050565b6000612e1c8261243d565b9150612e278361243d565b9250828201905080821115612e3f57612e3e612d9a565b5b92915050565b7f63616e2774206269642c206d616b652061206869676865722042696400000000600082015250565b6000612e7b601c83612396565b9150612e8682612e45565b602082019050919050565b60006020820190508181036000830152612eaa81612e6e565b9050919050565b7f4552433732313a20696e76616c696420746f6b656e2049440000000000000000600082015250565b6000612ee7601883612396565b9150612ef282612eb1565b602082019050919050565b60006020820190508181036000830152612f1681612eda565b9050919050565b7f4552433732313a2061646472657373207a65726f206973206e6f74206120766160008201527f6c6964206f776e65720000000000000000000000000000000000000000000000602082015250565b6000612f79602983612396565b9150612f8482612f1d565b604082019050919050565b60006020820190508181036000830152612fa881612f6c565b9050919050565b600081905092915050565b6000612fc58261238b565b612fcf8185612faf565b9350612fdf8185602086016123a7565b80840191505092915050565b6000612ff78285612fba565b91506130038284612fba565b91508190509392505050565b60008190508160005260206000209050919050565b60006020601f8301049050919050565b600082821b905092915050565b6000600883026130717fffffffffffffffffffffffffffffffffffffffffffffffffffffffffffffffff82613034565b61307b8683613034565b95508019841693508086168417925050509392505050565b6000819050919050565b60006130b86130b36130ae8461243d565b613093565b61243d565b9050919050565b6000819050919050565b6130d28361309d565b6130e66130de826130bf565b848454613041565b825550505050565b600090565b6130fb6130ee565b6131068184846130c9565b505050565b5b8181101561312a5761311f6000826130f3565b60018101905061310c565b5050565b601f82111561316f576131408161300f565b61314984613024565b81016020851015613158578190505b61316c61316485613024565b83018261310b565b50505b505050565b600082821c905092915050565b600061319260001984600802613174565b1980831691505092915050565b60006131ab8383613181565b9150826002028217905092915050565b6131c48261238b565b67ffffffffffffffff8111156131dd576131dc612688565b5b6131e78254612b84565b6131f282828561312e565b600060209050601f8311600181146132255760008415613213578287015190505b61321d858261319f565b865550613285565b601f1984166132338661300f565b60005b8281101561325b57848901518255600182019150602085019450602081019050613236565b868310156132785784890151613274601f891682613181565b8355505b6001600288020188555050505b505050505050565b7f4552433732313a207472616e736665722066726f6d20696e636f72726563742060008201527f6f776e6572000000000000000000000000000000000000000000000000000000602082015250565b60006132e9602583612396565b91506132f48261328d565b604082019050919050565b60006020820190508181036000830152613318816132dc565b9050919050565b7f4552433732313a207472616e7366657220746f20746865207a65726f2061646460008201527f7265737300000000000000000000000000000000000000000000000000000000602082015250565b600061337b602483612396565b91506133868261331f565b604082019050919050565b600060208201905081810360008301526133aa8161336e565b9050919050565b7f4552433732313a20617070726f766520746f2063616c6c657200000000000000600082015250565b60006133e7601983612396565b91506133f2826133b1565b602082019050919050565b60006020820190508181036000830152613416816133da565b9050919050565b7f4552433732313a207472616e7366657220746f206e6f6e20455243373231526560008201527f63656976657220696d706c656d656e7465720000000000000000000000000000602082015250565b6000613479603283612396565b91506134848261341d565b604082019050919050565b600060208201905081810360008301526134a88161346c565b9050919050565b7f4e487b7100000000000000000000000000000000000000000000000000000000600052601260045260246000fd5b7f4552433732313a206d696e7420746f20746865207a65726f2061646472657373600082015250565b6000613514602083612396565b915061351f826134de565b602082019050919050565b6000602082019050818103600083015261354381613507565b9050919050565b7f4552433732313a20746f6b656e20616c7265616479206d696e74656400000000600082015250565b6000613580601c83612396565b915061358b8261354a565b602082019050919050565b600060208201905081810360008301526135af81613573565b9050919050565b60006135c18261243d565b91506135cc8361243d565b92508282039050818111156135e4576135e3612d9a565b5b92915050565b600081519050919050565b600082825260208201905092915050565b6000613611826135ea565b61361b81856135f5565b935061362b8185602086016123a7565b613634816123d1565b840191505092915050565b600060808201905061365460008301876124d2565b61366160208301866124d2565b61366e60408301856125e8565b81810360608301526136808184613606565b905095945050505050565b60008151905061369a816122fc565b92915050565b6000602082840312156136b6576136b56122c6565b5b60006136c48482850161368b565b9150509291505056fea264697066735822122089aefea2946e30edd3067c945c66e94206c7b070165b91ab3f2a1cc12879596464736f6c63430008110033",
  "immutableReferences": {},
  "source": "//SPDX-License-Identifier: MIT\npragma solidity 0.8.17;\n\nimport \"./LandReg.sol\";\n\ncontract LandSale is LandRegistration {\n    \n    struct BidDetail {\n        uint256 highestBid;\n        address highestBidder;\n        mapping(address => uint256) bids;\n        address[] bidders;\n    }\n    mapping(uint256 => BidDetail) BidDetails;\n\n    function bid(uint256 landID) public payable {\n        require(msg.sender != ownerOf(landID)); //condition to make sure that the landowner will not be able to participate in the auction process. \n        require(BidDetails[landID].bids[msg.sender] + msg.value > BidDetails[landID].highestBid, \"can't bid, make a higher Bid\");\n        BidDetails[landID].highestBidder = msg.sender;\n        BidDetails[landID].bidders.push(msg.sender);\n        BidDetails[landID].highestBid =\n            BidDetails[landID].bids[msg.sender] +\n            msg.value;\n        BidDetails[landID].bids[msg.sender] += msg.value;\n    }    \n    \n    function acceptBid(uint256 landID) public  {\n        payable(msg.sender).transfer(BidDetails[landID].highestBid);\n        safeTransferFrom(msg.sender, BidDetails[landID].highestBidder, landID);  //to transfer the ownership of a token to another person.\n        for (uint256 i = 0; i < BidDetails[landID].bidders.length; i++) {\n            if (BidDetails[landID].bidders[i] == BidDetails[landID].highestBidder) {\n                continue;\n            }\n            payable(BidDetails[landID].bidders[i]).transfer(BidDetails[landID].bids[BidDetails[landID].bidders[i]]);\n        }\n        LandDetails[landID].salesStatus = true;\n    }\n    \n    fallback () external {\n        revert();\n    }\n}",
  "sourcePath": "/home/dell/Documents/solidity-practices/Land/contracts/LandSale.sol",
  "compiler": {
    "name": "solc",
    "version": "0.8.17+commit.8df45f5f.Emscripten.clang"
  },
  "schemaVersion": "3.4.6",
  "updatedAt": "2023-01-13T10:08:29.474Z",
  "networkType": "ethereum",
  "devdoc": {
    "kind": "dev",
    "methods": {
      "approve(address,uint256)": {
        "details": "See {IERC721-approve}."
      },
      "balanceOf(address)": {
        "details": "See {IERC721-balanceOf}."
      },
      "getApproved(uint256)": {
        "details": "See {IERC721-getApproved}."
      },
      "isApprovedForAll(address,address)": {
        "details": "See {IERC721-isApprovedForAll}."
      },
      "name()": {
        "details": "See {IERC721Metadata-name}."
      },
      "ownerOf(uint256)": {
        "details": "See {IERC721-ownerOf}."
      },
      "safeTransferFrom(address,address,uint256)": {
        "details": "See {IERC721-safeTransferFrom}."
      },
      "safeTransferFrom(address,address,uint256,bytes)": {
        "details": "See {IERC721-safeTransferFrom}."
      },
      "setApprovalForAll(address,bool)": {
        "details": "See {IERC721-setApprovalForAll}."
      },
      "supportsInterface(bytes4)": {
        "details": "See {IERC165-supportsInterface}."
      },
      "symbol()": {
        "details": "See {IERC721Metadata-symbol}."
      },
      "tokenURI(uint256)": {
        "details": "See {IERC721Metadata-tokenURI}."
      },
      "transferFrom(address,address,uint256)": {
        "details": "See {IERC721-transferFrom}."
      }
    },
    "version": 1
  },
  "userdoc": {
    "kind": "user",
    "methods": {},
    "version": 1
  }
}