{
  "contractName": "LandRegistration",
  "abi": [
    {
      "inputs": [],
      "stateMutability": "nonpayable",
      "type": "constructor"
    },
    {
      "anonymous": false,
      "inputs": [
        {
          "indexed": true,
          "internalType": "address",
          "name": "owner",
          "type": "address"
        },
        {
          "indexed": true,
          "internalType": "address",
          "name": "approved",
          "type": "address"
        },
        {
          "indexed": true,
          "internalType": "uint256",
          "name": "tokenId",
          "type": "uint256"
        }
      ],
      "name": "Approval",
      "type": "event"
    },
    {
      "anonymous": false,
      "inputs": [
        {
          "indexed": true,
          "internalType": "address",
          "name": "owner",
          "type": "address"
        },
        {
          "indexed": true,
          "internalType": "address",
          "name": "operator",
          "type": "address"
        },
        {
          "indexed": false,
          "internalType": "bool",
          "name": "approved",
          "type": "bool"
        }
      ],
      "name": "ApprovalForAll",
      "type": "event"
    },
    {
      "anonymous": false,
      "inputs": [
        {
          "indexed": true,
          "internalType": "address",
          "name": "from",
          "type": "address"
        },
        {
          "indexed": true,
          "internalType": "address",
          "name": "to",
          "type": "address"
        },
        {
          "indexed": true,
          "internalType": "uint256",
          "name": "tokenId",
          "type": "uint256"
        }
      ],
      "name": "Transfer",
      "type": "event"
    },
    {
      "inputs": [
        {
          "internalType": "address",
          "name": "to",
          "type": "address"
        },
        {
          "internalType": "uint256",
          "name": "tokenId",
          "type": "uint256"
        }
      ],
      "name": "approve",
      "outputs": [],
      "stateMutability": "nonpayable",
      "type": "function"
    },
    {
      "inputs": [
        {
          "internalType": "address",
          "name": "owner",
          "type": "address"
        }
      ],
      "name": "balanceOf",
      "outputs": [
        {
          "internalType": "uint256",
          "name": "",
          "type": "uint256"
        }
      ],
      "stateMutability": "view",
      "type": "function"
    },
    {
      "inputs": [
        {
          "internalType": "uint256",
          "name": "tokenId",
          "type": "uint256"
        }
      ],
      "name": "getApproved",
      "outputs": [
        {
          "internalType": "address",
          "name": "",
          "type": "address"
        }
      ],
      "stateMutability": "view",
      "type": "function"
    },
    {
      "inputs": [
        {
          "internalType": "address",
          "name": "owner",
          "type": "address"
        },
        {
          "internalType": "address",
          "name": "operator",
          "type": "address"
        }
      ],
      "name": "isApprovedForAll",
      "outputs": [
        {
          "internalType": "bool",
          "name": "",
          "type": "bool"
        }
      ],
      "stateMutability": "view",
      "type": "function"
    },
    {
      "inputs": [],
      "name": "name",
      "outputs": [
        {
          "internalType": "string",
          "name": "",
          "type": "string"
        }
      ],
      "stateMutability": "view",
      "type": "function"
    },
    {
      "inputs": [
        {
          "internalType": "uint256",
          "name": "tokenId",
          "type": "uint256"
        }
      ],
      "name": "ownerOf",
      "outputs": [
        {
          "internalType": "address",
          "name": "",
          "type": "address"
        }
      ],
      "stateMutability": "view",
      "type": "function"
    },
    {
      "inputs": [],
      "name": "registeredLandCount",
      "outputs": [
        {
          "internalType": "uint256",
          "name": "",
          "type": "uint256"
        }
      ],
      "stateMutability": "view",
      "type": "function"
    },
    {
      "inputs": [
        {
          "internalType": "address",
          "name": "from",
          "type": "address"
        },
        {
          "internalType": "address",
          "name": "to",
          "type": "address"
        },
        {
          "internalType": "uint256",
          "name": "tokenId",
          "type": "uint256"
        }
      ],
      "name": "safeTransferFrom",
      "outputs": [],
      "stateMutability": "nonpayable",
      "type": "function"
    },
    {
      "inputs": [
        {
          "internalType": "address",
          "name": "from",
          "type": "address"
        },
        {
          "internalType": "address",
          "name": "to",
          "type": "address"
        },
        {
          "internalType": "uint256",
          "name": "tokenId",
          "type": "uint256"
        },
        {
          "internalType": "bytes",
          "name": "data",
          "type": "bytes"
        }
      ],
      "name": "safeTransferFrom",
      "outputs": [],
      "stateMutability": "nonpayable",
      "type": "function"
    },
    {
      "inputs": [
        {
          "internalType": "address",
          "name": "operator",
          "type": "address"
        },
        {
          "internalType": "bool",
          "name": "approved",
          "type": "bool"
        }
      ],
      "name": "setApprovalForAll",
      "outputs": [],
      "stateMutability": "nonpayable",
      "type": "function"
    },
    {
      "inputs": [
        {
          "internalType": "bytes4",
          "name": "interfaceId",
          "type": "bytes4"
        }
      ],
      "name": "supportsInterface",
      "outputs": [
        {
          "internalType": "bool",
          "name": "",
          "type": "bool"
        }
      ],
      "stateMutability": "view",
      "type": "function"
    },
    {
      "inputs": [],
      "name": "symbol",
      "outputs": [
        {
          "internalType": "string",
          "name": "",
          "type": "string"
        }
      ],
      "stateMutability": "view",
      "type": "function"
    },
    {
      "inputs": [
        {
          "internalType": "uint256",
          "name": "tokenId",
          "type": "uint256"
        }
      ],
      "name": "tokenURI",
      "outputs": [
        {
          "internalType": "string",
          "name": "",
          "type": "string"
        }
      ],
      "stateMutability": "view",
      "type": "function"
    },
    {
      "inputs": [
        {
          "internalType": "address",
          "name": "from",
          "type": "address"
        },
        {
          "internalType": "address",
          "name": "to",
          "type": "address"
        },
        {
          "internalType": "uint256",
          "name": "tokenId",
          "type": "uint256"
        }
      ],
      "name": "transferFrom",
      "outputs": [],
      "stateMutability": "nonpayable",
      "type": "function"
    },
    {
      "inputs": [
        {
          "internalType": "uint256",
          "name": "surveyNo",
          "type": "uint256"
        },
        {
          "internalType": "string",
          "name": "district",
          "type": "string"
        },
        {
          "internalType": "string",
          "name": "taluk",
          "type": "string"
        },
        {
          "internalType": "string",
          "name": "village",
          "type": "string"
        },
        {
          "internalType": "uint256",
          "name": "blockNo",
          "type": "uint256"
        },
        {
          "internalType": "uint256",
          "name": "landValue",
          "type": "uint256"
        },
        {
          "internalType": "uint256",
          "name": "area",
          "type": "uint256"
        }
      ],
      "name": "registerNewLand",
      "outputs": [],
      "stateMutability": "nonpayable",
      "type": "function"
    },
    {
      "inputs": [
        {
          "internalType": "uint256",
          "name": "landID",
          "type": "uint256"
        }
      ],
      "name": "getLandDetails",
      "outputs": [
        {
          "components": [
            {
              "internalType": "uint256",
              "name": "surveyNo",
              "type": "uint256"
            },
            {
              "internalType": "string",
              "name": "district",
              "type": "string"
            },
            {
              "internalType": "string",
              "name": "taluk",
              "type": "string"
            },
            {
              "internalType": "string",
              "name": "village",
              "type": "string"
            },
            {
              "internalType": "uint256",
              "name": "blockNo",
              "type": "uint256"
            },
            {
              "internalType": "uint256",
              "name": "landValue",
              "type": "uint256"
            },
            {
              "internalType": "uint256",
              "name": "area",
              "type": "uint256"
            },
            {
              "internalType": "bool",
              "name": "salesStatus",
              "type": "bool"
            }
          ],
          "internalType": "struct LandRegistration.LandDetail",
          "name": "",
          "type": "tuple"
        }
      ],
      "stateMutability": "view",
      "type": "function"
    }
  ],
  "bytecode": "0x608060405260006007553480156200001657600080fd5b506040518060400160405280600481526020017f4c616e64000000000000000000000000000000000000000000000000000000008152506040518060400160405280600381526020017f4c4e440000000000000000000000000000000000000000000000000000000000815250816000908162000094919062000329565b508060019081620000a6919062000329565b50505062000410565b600081519050919050565b7f4e487b7100000000000000000000000000000000000000000000000000000000600052604160045260246000fd5b7f4e487b7100000000000000000000000000000000000000000000000000000000600052602260045260246000fd5b600060028204905060018216806200013157607f821691505b602082108103620001475762000146620000e9565b5b50919050565b60008190508160005260206000209050919050565b60006020601f8301049050919050565b600082821b905092915050565b600060088302620001b17fffffffffffffffffffffffffffffffffffffffffffffffffffffffffffffffff8262000172565b620001bd868362000172565b95508019841693508086168417925050509392505050565b6000819050919050565b6000819050919050565b60006200020a62000204620001fe84620001d5565b620001df565b620001d5565b9050919050565b6000819050919050565b6200022683620001e9565b6200023e620002358262000211565b8484546200017f565b825550505050565b600090565b6200025562000246565b620002628184846200021b565b505050565b5b818110156200028a576200027e6000826200024b565b60018101905062000268565b5050565b601f821115620002d957620002a3816200014d565b620002ae8462000162565b81016020851015620002be578190505b620002d6620002cd8562000162565b83018262000267565b50505b505050565b600082821c905092915050565b6000620002fe60001984600802620002de565b1980831691505092915050565b6000620003198383620002eb565b9150826002028217905092915050565b6200033482620000af565b67ffffffffffffffff81111562000350576200034f620000ba565b5b6200035c825462000118565b620003698282856200028e565b600060209050601f831160018114620003a157600084156200038c578287015190505b6200039885826200030b565b86555062000408565b601f198416620003b1866200014d565b60005b82811015620003db57848901518255600182019150602085019450602081019050620003b4565b86831015620003fb5784890151620003f7601f891682620002eb565b8355505b6001600288020188555050505b505050505050565b612f4680620004206000396000f3fe608060405234801561001057600080fd5b50600436106101005760003560e01c806395d89b4111610097578063c87b56dd11610066578063c87b56dd146102ab578063e985e9c5146102db578063f07706651461030b578063fe0cb7dc1461032757610100565b806395d89b4114610237578063a22cb46514610255578063a7613a7d14610271578063b88d4fde1461028f57610100565b806323b872dd116100d357806323b872dd1461019f57806342842e0e146101bb5780636352211e146101d757806370a082311461020757610100565b806301ffc9a71461010557806306fdde0314610135578063081812fc14610153578063095ea7b314610183575b600080fd5b61011f600480360381019061011a9190611c4e565b610357565b60405161012c9190611c96565b60405180910390f35b61013d610439565b60405161014a9190611d41565b60405180910390f35b61016d60048036038101906101689190611d99565b6104cb565b60405161017a9190611e07565b60405180910390f35b61019d60048036038101906101989190611e4e565b610511565b005b6101b960048036038101906101b49190611e8e565b610628565b005b6101d560048036038101906101d09190611e8e565b610688565b005b6101f160048036038101906101ec9190611d99565b6106a8565b6040516101fe9190611e07565b60405180910390f35b610221600480360381019061021c9190611ee1565b61072e565b60405161022e9190611f1d565b60405180910390f35b61023f6107e5565b60405161024c9190611d41565b60405180910390f35b61026f600480360381019061026a9190611f64565b610877565b005b61027961088d565b6040516102869190611f1d565b60405180910390f35b6102a960048036038101906102a491906120d9565b610893565b005b6102c560048036038101906102c09190611d99565b6108f5565b6040516102d29190611d41565b60405180910390f35b6102f560048036038101906102f0919061215c565b61095d565b6040516103029190611c96565b60405180910390f35b6103256004803603810190610320919061223d565b6109f1565b005b610341600480360381019061033c9190611d99565b610aff565b60405161034e9190612459565b60405180910390f35b60007f80ac58cd000000000000000000000000000000000000000000000000000000007bffffffffffffffffffffffffffffffffffffffffffffffffffffffff1916827bffffffffffffffffffffffffffffffffffffffffffffffffffffffff1916148061042257507f5b5e139f000000000000000000000000000000000000000000000000000000007bffffffffffffffffffffffffffffffffffffffffffffffffffffffff1916827bffffffffffffffffffffffffffffffffffffffffffffffffffffffff1916145b80610432575061043182610d26565b5b9050919050565b606060008054610448906124aa565b80601f0160208091040260200160405190810160405280929190818152602001828054610474906124aa565b80156104c15780601f10610496576101008083540402835291602001916104c1565b820191906000526020600020905b8154815290600101906020018083116104a457829003601f168201915b5050505050905090565b60006104d682610d90565b6004600083815260200190815260200160002060009054906101000a900473ffffffffffffffffffffffffffffffffffffffff169050919050565b600061051c826106a8565b90508073ffffffffffffffffffffffffffffffffffffffff168373ffffffffffffffffffffffffffffffffffffffff160361058c576040517f08c379a00000000000000000000000000000000000000000000000000000000081526004016105839061254d565b60405180910390fd5b8073ffffffffffffffffffffffffffffffffffffffff166105ab610ddb565b73ffffffffffffffffffffffffffffffffffffffff1614806105da57506105d9816105d4610ddb565b61095d565b5b610619576040517f08c379a0000000000000000000000000000000000000000000000000000000008152600401610610906125df565b60405180910390fd5b6106238383610de3565b505050565b610639610633610ddb565b82610e9c565b610678576040517f08c379a000000000000000000000000000000000000000000000000000000000815260040161066f90612671565b60405180910390fd5b610683838383610f31565b505050565b6106a383838360405180602001604052806000815250610893565b505050565b6000806106b48361122a565b9050600073ffffffffffffffffffffffffffffffffffffffff168173ffffffffffffffffffffffffffffffffffffffff1603610725576040517f08c379a000000000000000000000000000000000000000000000000000000000815260040161071c906126dd565b60405180910390fd5b80915050919050565b60008073ffffffffffffffffffffffffffffffffffffffff168273ffffffffffffffffffffffffffffffffffffffff160361079e576040517f08c379a00000000000000000000000000000000000000000000000000000000081526004016107959061276f565b60405180910390fd5b600360008373ffffffffffffffffffffffffffffffffffffffff1673ffffffffffffffffffffffffffffffffffffffff168152602001908152602001600020549050919050565b6060600180546107f4906124aa565b80601f0160208091040260200160405190810160405280929190818152602001828054610820906124aa565b801561086d5780601f106108425761010080835404028352916020019161086d565b820191906000526020600020905b81548152906001019060200180831161085057829003601f168201915b5050505050905090565b610889610882610ddb565b8383611267565b5050565b60075481565b6108a461089e610ddb565b83610e9c565b6108e3576040517f08c379a00000000000000000000000000000000000000000000000000000000081526004016108da90612671565b60405180910390fd5b6108ef848484846113d3565b50505050565b606061090082610d90565b600061090a61142f565b9050600081511161092a5760405180602001604052806000815250610955565b8061093484611446565b6040516020016109459291906127cb565b6040516020818303038152906040525b915050919050565b6000600560008473ffffffffffffffffffffffffffffffffffffffff1673ffffffffffffffffffffffffffffffffffffffff16815260200190815260200160002060008373ffffffffffffffffffffffffffffffffffffffff1673ffffffffffffffffffffffffffffffffffffffff16815260200190815260200160002060009054906101000a900460ff16905092915050565b60405180610100016040528088815260200187815260200186815260200185815260200184815260200183815260200182815260200160001515815250600660006007548152602001908152602001600020600082015181600001556020820151816001019081610a62919061299b565b506040820151816002019081610a78919061299b565b506060820151816003019081610a8e919061299b565b506080820151816004015560a0820151816005015560c0820151816006015560e08201518160070160006101000a81548160ff021916908315150217905550905050610adc33600754611514565b600160076000828254610aef9190612a9c565b9250508190555050505050505050565b610b07611b9b565b600660008381526020019081526020016000206040518061010001604052908160008201548152602001600182018054610b40906124aa565b80601f0160208091040260200160405190810160405280929190818152602001828054610b6c906124aa565b8015610bb95780601f10610b8e57610100808354040283529160200191610bb9565b820191906000526020600020905b815481529060010190602001808311610b9c57829003601f168201915b50505050508152602001600282018054610bd2906124aa565b80601f0160208091040260200160405190810160405280929190818152602001828054610bfe906124aa565b8015610c4b5780601f10610c2057610100808354040283529160200191610c4b565b820191906000526020600020905b815481529060010190602001808311610c2e57829003601f168201915b50505050508152602001600382018054610c64906124aa565b80601f0160208091040260200160405190810160405280929190818152602001828054610c90906124aa565b8015610cdd5780601f10610cb257610100808354040283529160200191610cdd565b820191906000526020600020905b815481529060010190602001808311610cc057829003601f168201915b505050505081526020016004820154815260200160058201548152602001600682015481526020016007820160009054906101000a900460ff1615151515815250509050919050565b60007f01ffc9a7000000000000000000000000000000000000000000000000000000007bffffffffffffffffffffffffffffffffffffffffffffffffffffffff1916827bffffffffffffffffffffffffffffffffffffffffffffffffffffffff1916149050919050565b610d9981611731565b610dd8576040517f08c379a0000000000000000000000000000000000000000000000000000000008152600401610dcf906126dd565b60405180910390fd5b50565b600033905090565b816004600083815260200190815260200160002060006101000a81548173ffffffffffffffffffffffffffffffffffffffff021916908373ffffffffffffffffffffffffffffffffffffffff160217905550808273ffffffffffffffffffffffffffffffffffffffff16610e56836106a8565b73ffffffffffffffffffffffffffffffffffffffff167f8c5be1e5ebec7d5bd14f71427d1e84f3dd0314c0f7b2291e5b200ac8c7c3b92560405160405180910390a45050565b600080610ea8836106a8565b90508073ffffffffffffffffffffffffffffffffffffffff168473ffffffffffffffffffffffffffffffffffffffff161480610eea5750610ee9818561095d565b5b80610f2857508373ffffffffffffffffffffffffffffffffffffffff16610f10846104cb565b73ffffffffffffffffffffffffffffffffffffffff16145b91505092915050565b8273ffffffffffffffffffffffffffffffffffffffff16610f51826106a8565b73ffffffffffffffffffffffffffffffffffffffff1614610fa7576040517f08c379a0000000000000000000000000000000000000000000000000000000008152600401610f9e90612b42565b60405180910390fd5b600073ffffffffffffffffffffffffffffffffffffffff168273ffffffffffffffffffffffffffffffffffffffff1603611016576040517f08c379a000000000000000000000000000000000000000000000000000000000815260040161100d90612bd4565b60405180910390fd5b6110238383836001611772565b8273ffffffffffffffffffffffffffffffffffffffff16611043826106a8565b73ffffffffffffffffffffffffffffffffffffffff1614611099576040517f08c379a000000000000000000000000000000000000000000000000000000000815260040161109090612b42565b60405180910390fd5b6004600082815260200190815260200160002060006101000a81549073ffffffffffffffffffffffffffffffffffffffff02191690556001600360008573ffffffffffffffffffffffffffffffffffffffff1673ffffffffffffffffffffffffffffffffffffffff168152602001908152602001600020600082825403925050819055506001600360008473ffffffffffffffffffffffffffffffffffffffff1673ffffffffffffffffffffffffffffffffffffffff16815260200190815260200160002060008282540192505081905550816002600083815260200190815260200160002060006101000a81548173ffffffffffffffffffffffffffffffffffffffff021916908373ffffffffffffffffffffffffffffffffffffffff160217905550808273ffffffffffffffffffffffffffffffffffffffff168473ffffffffffffffffffffffffffffffffffffffff167fddf252ad1be2c89b69c2b068fc378daa952ba7f163c4a11628f55a4df523b3ef60405160405180910390a46112258383836001611898565b505050565b60006002600083815260200190815260200160002060009054906101000a900473ffffffffffffffffffffffffffffffffffffffff169050919050565b8173ffffffffffffffffffffffffffffffffffffffff168373ffffffffffffffffffffffffffffffffffffffff16036112d5576040517f08c379a00000000000000000000000000000000000000000000000000000000081526004016112cc90612c40565b60405180910390fd5b80600560008573ffffffffffffffffffffffffffffffffffffffff1673ffffffffffffffffffffffffffffffffffffffff16815260200190815260200160002060008473ffffffffffffffffffffffffffffffffffffffff1673ffffffffffffffffffffffffffffffffffffffff16815260200190815260200160002060006101000a81548160ff0219169083151502179055508173ffffffffffffffffffffffffffffffffffffffff168373ffffffffffffffffffffffffffffffffffffffff167f17307eab39ab6107e8899845ad3d59bd9653f200f220920489ca2b5937696c31836040516113c69190611c96565b60405180910390a3505050565b6113de848484610f31565b6113ea8484848461189e565b611429576040517f08c379a000000000000000000000000000000000000000000000000000000000815260040161142090612cd2565b60405180910390fd5b50505050565b606060405180602001604052806000815250905090565b60606000600161145584611a25565b01905060008167ffffffffffffffff81111561147457611473611fae565b5b6040519080825280601f01601f1916602001820160405280156114a65781602001600182028036833780820191505090505b509050600082602001820190505b600115611509578080600190039150507f3031323334353637383961626364656600000000000000000000000000000000600a86061a8153600a85816114fd576114fc612cf2565b5b049450600085036114b4575b819350505050919050565b600073ffffffffffffffffffffffffffffffffffffffff168273ffffffffffffffffffffffffffffffffffffffff1603611583576040517f08c379a000000000000000000000000000000000000000000000000000000000815260040161157a90612d6d565b60405180910390fd5b61158c81611731565b156115cc576040517f08c379a00000000000000000000000000000000000000000000000000000000081526004016115c390612dd9565b60405180910390fd5b6115da600083836001611772565b6115e381611731565b15611623576040517f08c379a000000000000000000000000000000000000000000000000000000000815260040161161a90612dd9565b60405180910390fd5b6001600360008473ffffffffffffffffffffffffffffffffffffffff1673ffffffffffffffffffffffffffffffffffffffff16815260200190815260200160002060008282540192505081905550816002600083815260200190815260200160002060006101000a81548173ffffffffffffffffffffffffffffffffffffffff021916908373ffffffffffffffffffffffffffffffffffffffff160217905550808273ffffffffffffffffffffffffffffffffffffffff16600073ffffffffffffffffffffffffffffffffffffffff167fddf252ad1be2c89b69c2b068fc378daa952ba7f163c4a11628f55a4df523b3ef60405160405180910390a461172d600083836001611898565b5050565b60008073ffffffffffffffffffffffffffffffffffffffff166117538361122a565b73ffffffffffffffffffffffffffffffffffffffff1614159050919050565b600181111561189257600073ffffffffffffffffffffffffffffffffffffffff168473ffffffffffffffffffffffffffffffffffffffff16146118065780600360008673ffffffffffffffffffffffffffffffffffffffff1673ffffffffffffffffffffffffffffffffffffffff16815260200190815260200160002060008282546117fe9190612df9565b925050819055505b600073ffffffffffffffffffffffffffffffffffffffff168373ffffffffffffffffffffffffffffffffffffffff16146118915780600360008573ffffffffffffffffffffffffffffffffffffffff1673ffffffffffffffffffffffffffffffffffffffff16815260200190815260200160002060008282546118899190612a9c565b925050819055505b5b50505050565b50505050565b60006118bf8473ffffffffffffffffffffffffffffffffffffffff16611b78565b15611a18578373ffffffffffffffffffffffffffffffffffffffff1663150b7a026118e8610ddb565b8786866040518563ffffffff1660e01b815260040161190a9493929190612e82565b6020604051808303816000875af192505050801561194657506040513d601f19601f820116820180604052508101906119439190612ee3565b60015b6119c8573d8060008114611976576040519150601f19603f3d011682016040523d82523d6000602084013e61197b565b606091505b5060008151036119c0576040517f08c379a00000000000000000000000000000000000000000000000000000000081526004016119b790612cd2565b60405180910390fd5b805181602001fd5b63150b7a0260e01b7bffffffffffffffffffffffffffffffffffffffffffffffffffffffff1916817bffffffffffffffffffffffffffffffffffffffffffffffffffffffff191614915050611a1d565b600190505b949350505050565b600080600090507a184f03e93ff9f4daa797ed6e38ed64bf6a1f0100000000000000008310611a83577a184f03e93ff9f4daa797ed6e38ed64bf6a1f0100000000000000008381611a7957611a78612cf2565b5b0492506040810190505b6d04ee2d6d415b85acef81000000008310611ac0576d04ee2d6d415b85acef81000000008381611ab657611ab5612cf2565b5b0492506020810190505b662386f26fc100008310611aef57662386f26fc100008381611ae557611ae4612cf2565b5b0492506010810190505b6305f5e1008310611b18576305f5e1008381611b0e57611b0d612cf2565b5b0492506008810190505b6127108310611b3d576127108381611b3357611b32612cf2565b5b0492506004810190505b60648310611b605760648381611b5657611b55612cf2565b5b0492506002810190505b600a8310611b6f576001810190505b80915050919050565b6000808273ffffffffffffffffffffffffffffffffffffffff163b119050919050565b604051806101000160405280600081526020016060815260200160608152602001606081526020016000815260200160008152602001600081526020016000151581525090565b6000604051905090565b600080fd5b600080fd5b60007fffffffff0000000000000000000000000000000000000000000000000000000082169050919050565b611c2b81611bf6565b8114611c3657600080fd5b50565b600081359050611c4881611c22565b92915050565b600060208284031215611c6457611c63611bec565b5b6000611c7284828501611c39565b91505092915050565b60008115159050919050565b611c9081611c7b565b82525050565b6000602082019050611cab6000830184611c87565b92915050565b600081519050919050565b600082825260208201905092915050565b60005b83811015611ceb578082015181840152602081019050611cd0565b60008484015250505050565b6000601f19601f8301169050919050565b6000611d1382611cb1565b611d1d8185611cbc565b9350611d2d818560208601611ccd565b611d3681611cf7565b840191505092915050565b60006020820190508181036000830152611d5b8184611d08565b905092915050565b6000819050919050565b611d7681611d63565b8114611d8157600080fd5b50565b600081359050611d9381611d6d565b92915050565b600060208284031215611daf57611dae611bec565b5b6000611dbd84828501611d84565b91505092915050565b600073ffffffffffffffffffffffffffffffffffffffff82169050919050565b6000611df182611dc6565b9050919050565b611e0181611de6565b82525050565b6000602082019050611e1c6000830184611df8565b92915050565b611e2b81611de6565b8114611e3657600080fd5b50565b600081359050611e4881611e22565b92915050565b60008060408385031215611e6557611e64611bec565b5b6000611e7385828601611e39565b9250506020611e8485828601611d84565b9150509250929050565b600080600060608486031215611ea757611ea6611bec565b5b6000611eb586828701611e39565b9350506020611ec686828701611e39565b9250506040611ed786828701611d84565b9150509250925092565b600060208284031215611ef757611ef6611bec565b5b6000611f0584828501611e39565b91505092915050565b611f1781611d63565b82525050565b6000602082019050611f326000830184611f0e565b92915050565b611f4181611c7b565b8114611f4c57600080fd5b50565b600081359050611f5e81611f38565b92915050565b60008060408385031215611f7b57611f7a611bec565b5b6000611f8985828601611e39565b9250506020611f9a85828601611f4f565b9150509250929050565b600080fd5b600080fd5b7f4e487b7100000000000000000000000000000000000000000000000000000000600052604160045260246000fd5b611fe682611cf7565b810181811067ffffffffffffffff8211171561200557612004611fae565b5b80604052505050565b6000612018611be2565b90506120248282611fdd565b919050565b600067ffffffffffffffff82111561204457612043611fae565b5b61204d82611cf7565b9050602081019050919050565b82818337600083830152505050565b600061207c61207784612029565b61200e565b90508281526020810184848401111561209857612097611fa9565b5b6120a384828561205a565b509392505050565b600082601f8301126120c0576120bf611fa4565b5b81356120d0848260208601612069565b91505092915050565b600080600080608085870312156120f3576120f2611bec565b5b600061210187828801611e39565b945050602061211287828801611e39565b935050604061212387828801611d84565b925050606085013567ffffffffffffffff81111561214457612143611bf1565b5b612150878288016120ab565b91505092959194509250565b6000806040838503121561217357612172611bec565b5b600061218185828601611e39565b925050602061219285828601611e39565b9150509250929050565b600067ffffffffffffffff8211156121b7576121b6611fae565b5b6121c082611cf7565b9050602081019050919050565b60006121e06121db8461219c565b61200e565b9050828152602081018484840111156121fc576121fb611fa9565b5b61220784828561205a565b509392505050565b600082601f83011261222457612223611fa4565b5b81356122348482602086016121cd565b91505092915050565b600080600080600080600060e0888a03121561225c5761225b611bec565b5b600061226a8a828b01611d84565b975050602088013567ffffffffffffffff81111561228b5761228a611bf1565b5b6122978a828b0161220f565b965050604088013567ffffffffffffffff8111156122b8576122b7611bf1565b5b6122c48a828b0161220f565b955050606088013567ffffffffffffffff8111156122e5576122e4611bf1565b5b6122f18a828b0161220f565b94505060806123028a828b01611d84565b93505060a06123138a828b01611d84565b92505060c06123248a828b01611d84565b91505092959891949750929550565b61233c81611d63565b82525050565b600082825260208201905092915050565b600061235e82611cb1565b6123688185612342565b9350612378818560208601611ccd565b61238181611cf7565b840191505092915050565b61239581611c7b565b82525050565b6000610100830160008301516123b46000860182612333565b50602083015184820360208601526123cc8282612353565b915050604083015184820360408601526123e68282612353565b915050606083015184820360608601526124008282612353565b91505060808301516124156080860182612333565b5060a083015161242860a0860182612333565b5060c083015161243b60c0860182612333565b5060e083015161244e60e086018261238c565b508091505092915050565b60006020820190508181036000830152612473818461239b565b905092915050565b7f4e487b7100000000000000000000000000000000000000000000000000000000600052602260045260246000fd5b600060028204905060018216806124c257607f821691505b6020821081036124d5576124d461247b565b5b50919050565b7f4552433732313a20617070726f76616c20746f2063757272656e74206f776e6560008201527f7200000000000000000000000000000000000000000000000000000000000000602082015250565b6000612537602183611cbc565b9150612542826124db565b604082019050919050565b600060208201905081810360008301526125668161252a565b9050919050565b7f4552433732313a20617070726f76652063616c6c6572206973206e6f7420746f60008201527f6b656e206f776e6572206f7220617070726f76656420666f7220616c6c000000602082015250565b60006125c9603d83611cbc565b91506125d48261256d565b604082019050919050565b600060208201905081810360008301526125f8816125bc565b9050919050565b7f4552433732313a2063616c6c6572206973206e6f7420746f6b656e206f776e6560008201527f72206f7220617070726f76656400000000000000000000000000000000000000602082015250565b600061265b602d83611cbc565b9150612666826125ff565b604082019050919050565b6000602082019050818103600083015261268a8161264e565b9050919050565b7f4552433732313a20696e76616c696420746f6b656e2049440000000000000000600082015250565b60006126c7601883611cbc565b91506126d282612691565b602082019050919050565b600060208201905081810360008301526126f6816126ba565b9050919050565b7f4552433732313a2061646472657373207a65726f206973206e6f74206120766160008201527f6c6964206f776e65720000000000000000000000000000000000000000000000602082015250565b6000612759602983611cbc565b9150612764826126fd565b604082019050919050565b600060208201905081810360008301526127888161274c565b9050919050565b600081905092915050565b60006127a582611cb1565b6127af818561278f565b93506127bf818560208601611ccd565b80840191505092915050565b60006127d7828561279a565b91506127e3828461279a565b91508190509392505050565b60008190508160005260206000209050919050565b60006020601f8301049050919050565b600082821b905092915050565b6000600883026128517fffffffffffffffffffffffffffffffffffffffffffffffffffffffffffffffff82612814565b61285b8683612814565b95508019841693508086168417925050509392505050565b6000819050919050565b600061289861289361288e84611d63565b612873565b611d63565b9050919050565b6000819050919050565b6128b28361287d565b6128c66128be8261289f565b848454612821565b825550505050565b600090565b6128db6128ce565b6128e68184846128a9565b505050565b5b8181101561290a576128ff6000826128d3565b6001810190506128ec565b5050565b601f82111561294f57612920816127ef565b61292984612804565b81016020851015612938578190505b61294c61294485612804565b8301826128eb565b50505b505050565b600082821c905092915050565b600061297260001984600802612954565b1980831691505092915050565b600061298b8383612961565b9150826002028217905092915050565b6129a482611cb1565b67ffffffffffffffff8111156129bd576129bc611fae565b5b6129c782546124aa565b6129d282828561290e565b600060209050601f831160018114612a0557600084156129f3578287015190505b6129fd858261297f565b865550612a65565b601f198416612a13866127ef565b60005b82811015612a3b57848901518255600182019150602085019450602081019050612a16565b86831015612a585784890151612a54601f891682612961565b8355505b6001600288020188555050505b505050505050565b7f4e487b7100000000000000000000000000000000000000000000000000000000600052601160045260246000fd5b6000612aa782611d63565b9150612ab283611d63565b9250828201905080821115612aca57612ac9612a6d565b5b92915050565b7f4552433732313a207472616e736665722066726f6d20696e636f72726563742060008201527f6f776e6572000000000000000000000000000000000000000000000000000000602082015250565b6000612b2c602583611cbc565b9150612b3782612ad0565b604082019050919050565b60006020820190508181036000830152612b5b81612b1f565b9050919050565b7f4552433732313a207472616e7366657220746f20746865207a65726f2061646460008201527f7265737300000000000000000000000000000000000000000000000000000000602082015250565b6000612bbe602483611cbc565b9150612bc982612b62565b604082019050919050565b60006020820190508181036000830152612bed81612bb1565b9050919050565b7f4552433732313a20617070726f766520746f2063616c6c657200000000000000600082015250565b6000612c2a601983611cbc565b9150612c3582612bf4565b602082019050919050565b60006020820190508181036000830152612c5981612c1d565b9050919050565b7f4552433732313a207472616e7366657220746f206e6f6e20455243373231526560008201527f63656976657220696d706c656d656e7465720000000000000000000000000000602082015250565b6000612cbc603283611cbc565b9150612cc782612c60565b604082019050919050565b60006020820190508181036000830152612ceb81612caf565b9050919050565b7f4e487b7100000000000000000000000000000000000000000000000000000000600052601260045260246000fd5b7f4552433732313a206d696e7420746f20746865207a65726f2061646472657373600082015250565b6000612d57602083611cbc565b9150612d6282612d21565b602082019050919050565b60006020820190508181036000830152612d8681612d4a565b9050919050565b7f4552433732313a20746f6b656e20616c7265616479206d696e74656400000000600082015250565b6000612dc3601c83611cbc565b9150612dce82612d8d565b602082019050919050565b60006020820190508181036000830152612df281612db6565b9050919050565b6000612e0482611d63565b9150612e0f83611d63565b9250828203905081811115612e2757612e26612a6d565b5b92915050565b600081519050919050565b600082825260208201905092915050565b6000612e5482612e2d565b612e5e8185612e38565b9350612e6e818560208601611ccd565b612e7781611cf7565b840191505092915050565b6000608082019050612e976000830187611df8565b612ea46020830186611df8565b612eb16040830185611f0e565b8181036060830152612ec38184612e49565b905095945050505050565b600081519050612edd81611c22565b92915050565b600060208284031215612ef957612ef8611bec565b5b6000612f0784828501612ece565b9150509291505056fea26469706673582212207663e0a5ea6dd7bc25f2dbe9fda2091a97d89fef73f1761191add3100396437a64736f6c63430008110033",
  "immutableReferences": {},
  "source": "// SPDX-License-Identifier: MIT\n\npragma solidity 0.8.17;\n\nimport \"@openzeppelin/contracts/token/ERC721/ERC721.sol\";\n\ncontract LandRegistration  is ERC721 {\n\nconstructor() ERC721(\"Land\", \"LND\") {}\n\n    struct LandDetail {\n        uint surveyNo;\n        string district;\n        string taluk;\n        string village;\n        uint blockNo;\n        uint landValue; // in wei\n        uint area;\n        bool salesStatus;\n    }\n    \n    mapping(uint => LandDetail) LandDetails;\n    \n    uint public registeredLandCount = 0;\n    \n    bool salesStatus;\n    \n    function registerNewLand(uint surveyNo, string memory district, string memory taluk, string memory village, uint blockNo, uint landValue, uint area) public {\n        LandDetails[registeredLandCount] = LandDetail(surveyNo, district, taluk, village, blockNo, landValue, area, false);\n        _mint(msg.sender, registeredLandCount); //for creating new token\n        registeredLandCount += 1;\n    }\n    \n    function getLandDetails(uint landID) view public returns(LandDetail memory) {\n        return LandDetails[landID];\n    }\n}\n",
  "sourcePath": "/home/dell/Documents/solidity-practices/Land/contracts/LandReg.sol",
  "compiler": {
    "name": "solc",
    "version": "0.8.17+commit.8df45f5f.Emscripten.clang"
  },
  "schemaVersion": "3.4.6",
  "updatedAt": "2023-01-12T13:45:03.410Z",
  "devdoc": {
    "kind": "dev",
    "methods": {
      "approve(address,uint256)": {
        "details": "See {IERC721-approve}."
      },
      "balanceOf(address)": {
        "details": "See {IERC721-balanceOf}."
      },
      "getApproved(uint256)": {
        "details": "See {IERC721-getApproved}."
      },
      "isApprovedForAll(address,address)": {
        "details": "See {IERC721-isApprovedForAll}."
      },
      "name()": {
        "details": "See {IERC721Metadata-name}."
      },
      "ownerOf(uint256)": {
        "details": "See {IERC721-ownerOf}."
      },
      "safeTransferFrom(address,address,uint256)": {
        "details": "See {IERC721-safeTransferFrom}."
      },
      "safeTransferFrom(address,address,uint256,bytes)": {
        "details": "See {IERC721-safeTransferFrom}."
      },
      "setApprovalForAll(address,bool)": {
        "details": "See {IERC721-setApprovalForAll}."
      },
      "supportsInterface(bytes4)": {
        "details": "See {IERC165-supportsInterface}."
      },
      "symbol()": {
        "details": "See {IERC721Metadata-symbol}."
      },
      "tokenURI(uint256)": {
        "details": "See {IERC721Metadata-tokenURI}."
      },
      "transferFrom(address,address,uint256)": {
        "details": "See {IERC721-transferFrom}."
      }
    },
    "version": 1
  },
  "userdoc": {
    "kind": "user",
    "methods": {},
    "version": 1
  }
}