{
  "contractName": "LandSale",
  "abi": [
    {
      "stateMutability": "nonpayable",
      "type": "fallback"
    },
    {
      "inputs": [
        {
          "internalType": "uint256",
          "name": "landID",
          "type": "uint256"
        }
      ],
      "name": "getLandDetails",
      "outputs": [
        {
          "components": [
            {
              "internalType": "uint256",
              "name": "surveyNo",
              "type": "uint256"
            },
            {
              "internalType": "string",
              "name": "district",
              "type": "string"
            },
            {
              "internalType": "string",
              "name": "taluk",
              "type": "string"
            },
            {
              "internalType": "string",
              "name": "village",
              "type": "string"
            },
            {
              "internalType": "uint256",
              "name": "blockNo",
              "type": "uint256"
            },
            {
              "internalType": "uint256",
              "name": "landValue",
              "type": "uint256"
            },
            {
              "internalType": "uint256",
              "name": "area",
              "type": "uint256"
            },
            {
              "internalType": "bool",
              "name": "salesStatus",
              "type": "bool"
            }
          ],
          "internalType": "struct LandRegistration.LandDetail",
          "name": "",
          "type": "tuple"
        }
      ],
      "stateMutability": "view",
      "type": "function"
    },
    {
      "inputs": [
        {
          "internalType": "uint256",
          "name": "surveyNo",
          "type": "uint256"
        },
        {
          "internalType": "string",
          "name": "district",
          "type": "string"
        },
        {
          "internalType": "string",
          "name": "taluk",
          "type": "string"
        },
        {
          "internalType": "string",
          "name": "village",
          "type": "string"
        },
        {
          "internalType": "uint256",
          "name": "blockNo",
          "type": "uint256"
        },
        {
          "internalType": "uint256",
          "name": "landValue",
          "type": "uint256"
        },
        {
          "internalType": "uint256",
          "name": "area",
          "type": "uint256"
        }
      ],
      "name": "registerNewLand",
      "outputs": [],
      "stateMutability": "nonpayable",
      "type": "function"
    },
    {
      "inputs": [],
      "name": "registeredLandCount",
      "outputs": [
        {
          "internalType": "uint256",
          "name": "",
          "type": "uint256"
        }
      ],
      "stateMutability": "view",
      "type": "function"
    },
    {
      "inputs": [
        {
          "internalType": "uint256",
          "name": "landID",
          "type": "uint256"
        }
      ],
      "name": "bid",
      "outputs": [],
      "stateMutability": "payable",
      "type": "function"
    },
    {
      "inputs": [
        {
          "internalType": "uint256",
          "name": "landID",
          "type": "uint256"
        }
      ],
      "name": "acceptBid",
      "outputs": [],
      "stateMutability": "nonpayable",
      "type": "function"
    }
  ],
  "bytecode": "0x6080604052600060015534801561001557600080fd5b506112a3806100256000396000f3fe60806040526004361061004e5760003560e01c80632b1fd58a14610060578063454a2ab314610089578063a7613a7d146100a5578063f0770665146100d0578063fe0cb7dc146100f95761004f565b5b34801561005b57600080fd5b600080fd5b34801561006c57600080fd5b5061008760048036038101906100829190610a1c565b610136565b005b6100a3600480360381019061009e9190610a1c565b6103f7565b005b3480156100b157600080fd5b506100ba61065f565b6040516100c79190610a58565b60405180910390f35b3480156100dc57600080fd5b506100f760048036038101906100f29190610bb9565b610665565b005b34801561010557600080fd5b50610120600480360381019061011b9190610a1c565b610765565b60405161012d9190610e16565b60405180910390f35b3373ffffffffffffffffffffffffffffffffffffffff166108fc60036000848152602001908152602001600020600001549081150290604051600060405180830381858888f19350505050158015610192573d6000803e3d6000fd5b5060005b60036000838152602001908152602001600020600301805490508110156103c5576003600083815260200190815260200160002060010160009054906101000a900473ffffffffffffffffffffffffffffffffffffffff1673ffffffffffffffffffffffffffffffffffffffff1660036000848152602001908152602001600020600301828154811061022c5761022b610e38565b5b9060005260206000200160009054906101000a900473ffffffffffffffffffffffffffffffffffffffff1673ffffffffffffffffffffffffffffffffffffffff1603156103b25760036000838152602001908152602001600020600301818154811061029b5761029a610e38565b5b9060005260206000200160009054906101000a900473ffffffffffffffffffffffffffffffffffffffff1673ffffffffffffffffffffffffffffffffffffffff166108fc60036000858152602001908152602001600020600201600060036000878152602001908152602001600020600301858154811061031f5761031e610e38565b5b9060005260206000200160009054906101000a900473ffffffffffffffffffffffffffffffffffffffff1673ffffffffffffffffffffffffffffffffffffffff1673ffffffffffffffffffffffffffffffffffffffff168152602001908152602001600020549081150290604051600060405180830381858888f193505050501580156103b0573d6000803e3d6000fd5b505b80806103bd90610e96565b915050610196565b50600160008083815260200190815260200160002060070160006101000a81548160ff02191690831515021790555050565b6003600082815260200190815260200160002060000154346003600084815260200190815260200160002060020160003373ffffffffffffffffffffffffffffffffffffffff1673ffffffffffffffffffffffffffffffffffffffff1681526020019081526020016000205461046d9190610ede565b116104ad576040517f08c379a00000000000000000000000000000000000000000000000000000000081526004016104a490610f6f565b60405180910390fd5b336003600083815260200190815260200160002060010160006101000a81548173ffffffffffffffffffffffffffffffffffffffff021916908373ffffffffffffffffffffffffffffffffffffffff16021790555060036000828152602001908152602001600020600301339080600181540180825580915050600190039060005260206000200160009091909190916101000a81548173ffffffffffffffffffffffffffffffffffffffff021916908373ffffffffffffffffffffffffffffffffffffffff160217905550346003600083815260200190815260200160002060020160003373ffffffffffffffffffffffffffffffffffffffff1673ffffffffffffffffffffffffffffffffffffffff168152602001908152602001600020546105d89190610ede565b6003600083815260200190815260200160002060000181905550346003600083815260200190815260200160002060020160003373ffffffffffffffffffffffffffffffffffffffff1673ffffffffffffffffffffffffffffffffffffffff16815260200190815260200160002060008282546106559190610ede565b9250508190555050565b60015481565b6040518061010001604052808881526020018781526020018681526020018581526020018481526020018381526020018281526020016000151581525060008060015481526020019081526020016000206000820151816000015560208201518160010190816106d5919061119b565b5060408201518160020190816106eb919061119b565b506060820151816003019081610701919061119b565b506080820151816004015560a0820151816005015560c0820151816006015560e08201518160070160006101000a81548160ff02191690831515021790555090505060018060008282546107559190610ede565b9250508190555050505050505050565b61076d61098b565b60008083815260200190815260200160002060405180610100016040529081600082015481526020016001820180546107a590610fbe565b80601f01602080910402602001604051908101604052809291908181526020018280546107d190610fbe565b801561081e5780601f106107f35761010080835404028352916020019161081e565b820191906000526020600020905b81548152906001019060200180831161080157829003601f168201915b5050505050815260200160028201805461083790610fbe565b80601f016020809104026020016040519081016040528092919081815260200182805461086390610fbe565b80156108b05780601f10610885576101008083540402835291602001916108b0565b820191906000526020600020905b81548152906001019060200180831161089357829003601f168201915b505050505081526020016003820180546108c990610fbe565b80601f01602080910402602001604051908101604052809291908181526020018280546108f590610fbe565b80156109425780601f1061091757610100808354040283529160200191610942565b820191906000526020600020905b81548152906001019060200180831161092557829003601f168201915b505050505081526020016004820154815260200160058201548152602001600682015481526020016007820160009054906101000a900460ff1615151515815250509050919050565b604051806101000160405280600081526020016060815260200160608152602001606081526020016000815260200160008152602001600081526020016000151581525090565b6000604051905090565b600080fd5b600080fd5b6000819050919050565b6109f9816109e6565b8114610a0457600080fd5b50565b600081359050610a16816109f0565b92915050565b600060208284031215610a3257610a316109dc565b5b6000610a4084828501610a07565b91505092915050565b610a52816109e6565b82525050565b6000602082019050610a6d6000830184610a49565b92915050565b600080fd5b600080fd5b6000601f19601f8301169050919050565b7f4e487b7100000000000000000000000000000000000000000000000000000000600052604160045260246000fd5b610ac682610a7d565b810181811067ffffffffffffffff82111715610ae557610ae4610a8e565b5b80604052505050565b6000610af86109d2565b9050610b048282610abd565b919050565b600067ffffffffffffffff821115610b2457610b23610a8e565b5b610b2d82610a7d565b9050602081019050919050565b82818337600083830152505050565b6000610b5c610b5784610b09565b610aee565b905082815260208101848484011115610b7857610b77610a78565b5b610b83848285610b3a565b509392505050565b600082601f830112610ba057610b9f610a73565b5b8135610bb0848260208601610b49565b91505092915050565b600080600080600080600060e0888a031215610bd857610bd76109dc565b5b6000610be68a828b01610a07565b975050602088013567ffffffffffffffff811115610c0757610c066109e1565b5b610c138a828b01610b8b565b965050604088013567ffffffffffffffff811115610c3457610c336109e1565b5b610c408a828b01610b8b565b955050606088013567ffffffffffffffff811115610c6157610c606109e1565b5b610c6d8a828b01610b8b565b9450506080610c7e8a828b01610a07565b93505060a0610c8f8a828b01610a07565b92505060c0610ca08a828b01610a07565b91505092959891949750929550565b610cb8816109e6565b82525050565b600081519050919050565b600082825260208201905092915050565b60005b83811015610cf8578082015181840152602081019050610cdd565b60008484015250505050565b6000610d0f82610cbe565b610d198185610cc9565b9350610d29818560208601610cda565b610d3281610a7d565b840191505092915050565b60008115159050919050565b610d5281610d3d565b82525050565b600061010083016000830151610d716000860182610caf565b5060208301518482036020860152610d898282610d04565b91505060408301518482036040860152610da38282610d04565b91505060608301518482036060860152610dbd8282610d04565b9150506080830151610dd26080860182610caf565b5060a0830151610de560a0860182610caf565b5060c0830151610df860c0860182610caf565b5060e0830151610e0b60e0860182610d49565b508091505092915050565b60006020820190508181036000830152610e308184610d58565b905092915050565b7f4e487b7100000000000000000000000000000000000000000000000000000000600052603260045260246000fd5b7f4e487b7100000000000000000000000000000000000000000000000000000000600052601160045260246000fd5b6000610ea1826109e6565b91507fffffffffffffffffffffffffffffffffffffffffffffffffffffffffffffffff8203610ed357610ed2610e67565b5b600182019050919050565b6000610ee9826109e6565b9150610ef4836109e6565b9250828201905080821115610f0c57610f0b610e67565b5b92915050565b600082825260208201905092915050565b7f63616e2774206269642c206d616b652061206869676865722042696400000000600082015250565b6000610f59601c83610f12565b9150610f6482610f23565b602082019050919050565b60006020820190508181036000830152610f8881610f4c565b9050919050565b7f4e487b7100000000000000000000000000000000000000000000000000000000600052602260045260246000fd5b60006002820490506001821680610fd657607f821691505b602082108103610fe957610fe8610f8f565b5b50919050565b60008190508160005260206000209050919050565b60006020601f8301049050919050565b600082821b905092915050565b6000600883026110517fffffffffffffffffffffffffffffffffffffffffffffffffffffffffffffffff82611014565b61105b8683611014565b95508019841693508086168417925050509392505050565b6000819050919050565b600061109861109361108e846109e6565b611073565b6109e6565b9050919050565b6000819050919050565b6110b28361107d565b6110c66110be8261109f565b848454611021565b825550505050565b600090565b6110db6110ce565b6110e68184846110a9565b505050565b5b8181101561110a576110ff6000826110d3565b6001810190506110ec565b5050565b601f82111561114f5761112081610fef565b61112984611004565b81016020851015611138578190505b61114c61114485611004565b8301826110eb565b50505b505050565b600082821c905092915050565b600061117260001984600802611154565b1980831691505092915050565b600061118b8383611161565b9150826002028217905092915050565b6111a482610cbe565b67ffffffffffffffff8111156111bd576111bc610a8e565b5b6111c78254610fbe565b6111d282828561110e565b600060209050601f83116001811461120557600084156111f3578287015190505b6111fd858261117f565b865550611265565b601f19841661121386610fef565b60005b8281101561123b57848901518255600182019150602085019450602081019050611216565b868310156112585784890151611254601f891682611161565b8355505b6001600288020188555050505b50505050505056fea26469706673582212204854873a69d1721865a0ca59bfb38c87057e8fcd4a32d13acce345990237635264736f6c63430008110033",
  "immutableReferences": {},
  "source": "//SPDX-License-Identifier: MIT\npragma solidity 0.8.17;\n\nimport \"./LandReg.sol\";\n\ncontract LandSale is LandRegistration {\n    \n    struct BidDetail {\n        uint256 highestBid;\n        address highestBidder;\n        mapping(address => uint256) bids;\n        address[] bidders;\n    }\n    mapping(uint256 => BidDetail) BidDetails;\n\n    function bid(uint256 landID) public payable {\n        require(BidDetails[landID].bids[msg.sender] + msg.value > BidDetails[landID].highestBid, \"can't bid, make a higher Bid\");\n        BidDetails[landID].highestBidder = msg.sender;\n        BidDetails[landID].bidders.push(msg.sender);\n        BidDetails[landID].highestBid =\n            BidDetails[landID].bids[msg.sender] +\n            msg.value;\n        BidDetails[landID].bids[msg.sender] += msg.value;\n    }    \n    \n    function acceptBid(uint256 landID) public  {\n        payable(msg.sender).transfer(BidDetails[landID].highestBid);\n        for (uint256 i = 0; i < BidDetails[landID].bidders.length; i++) {\n            if (BidDetails[landID].bidders[i] == BidDetails[landID].highestBidder) {\n                continue;\n            }\n            payable(BidDetails[landID].bidders[i]).transfer(BidDetails[landID].bids[BidDetails[landID].bidders[i]]);\n        }\n        LandDetails[landID].salesStatus = true;\n    }\n    \n    fallback () external {\n        revert();\n    }\n}",
  "sourcePath": "/home/dell/Documents/solidity-practices/Land/contracts/LandSale.sol",
  "compiler": {
    "name": "solc",
    "version": "0.8.17+commit.8df45f5f.Emscripten.clang"
  },
  "schemaVersion": "3.4.6",
  "updatedAt": "2023-01-11T10:49:24.292Z",
  "devdoc": {
    "kind": "dev",
    "methods": {},
    "version": 1
  },
  "userdoc": {
    "kind": "user",
    "methods": {},
    "version": 1
  }
}