{
  "contractName": "PollContract",
  "abi": [
    {
      "inputs": [
        {
          "internalType": "string",
          "name": "",
          "type": "string"
        }
      ],
      "name": "PollDetails",
      "outputs": [
        {
          "internalType": "address",
          "name": "poster",
          "type": "address"
        },
        {
          "internalType": "string",
          "name": "question",
          "type": "string"
        },
        {
          "internalType": "string",
          "name": "option1",
          "type": "string"
        },
        {
          "internalType": "string",
          "name": "option2",
          "type": "string"
        },
        {
          "internalType": "string",
          "name": "option3",
          "type": "string"
        },
        {
          "internalType": "uint256",
          "name": "option1votes",
          "type": "uint256"
        },
        {
          "internalType": "uint256",
          "name": "option2votes",
          "type": "uint256"
        },
        {
          "internalType": "uint256",
          "name": "option3votes",
          "type": "uint256"
        }
      ],
      "stateMutability": "view",
      "type": "function",
      "constant": true
    },
    {
      "inputs": [
        {
          "internalType": "string",
          "name": "PollID",
          "type": "string"
        },
        {
          "internalType": "string",
          "name": "question",
          "type": "string"
        },
        {
          "internalType": "string",
          "name": "option1",
          "type": "string"
        },
        {
          "internalType": "string",
          "name": "option2",
          "type": "string"
        },
        {
          "internalType": "string",
          "name": "option3",
          "type": "string"
        }
      ],
      "name": "addNewPoll",
      "outputs": [],
      "stateMutability": "nonpayable",
      "type": "function"
    },
    {
      "inputs": [
        {
          "internalType": "string",
          "name": "PollID",
          "type": "string"
        },
        {
          "internalType": "uint256",
          "name": "option1",
          "type": "uint256"
        },
        {
          "internalType": "uint256",
          "name": "option2",
          "type": "uint256"
        },
        {
          "internalType": "uint256",
          "name": "option3",
          "type": "uint256"
        }
      ],
      "name": "vote",
      "outputs": [],
      "stateMutability": "nonpayable",
      "type": "function"
    }
  ],
  "bytecode": "0x608060405234801561001057600080fd5b50610c27806100206000396000f3fe608060405234801561001057600080fd5b50600436106100415760003560e01c8063538154ca14610046578063776a657b1461007d578063ebd1e7e514610099575b600080fd5b610060600480360381019061005b919061073d565b6100b5565b604051610074989796959493929190610868565b60405180910390f35b6100976004803603810190610092919061092e565b610353565b005b6100b360048036038101906100ae91906109b1565b610401565b005b6000818051602081018201805184825260208301602085012081835280955050505050506000915090508060000160009054906101000a900473ffffffffffffffffffffffffffffffffffffffff169080600101805461011490610ae7565b80601f016020809104026020016040519081016040528092919081815260200182805461014090610ae7565b801561018d5780601f106101625761010080835404028352916020019161018d565b820191906000526020600020905b81548152906001019060200180831161017057829003601f168201915b5050505050908060020180546101a290610ae7565b80601f01602080910402602001604051908101604052809291908181526020018280546101ce90610ae7565b801561021b5780601f106101f05761010080835404028352916020019161021b565b820191906000526020600020905b8154815290600101906020018083116101fe57829003601f168201915b50505050509080600301805461023090610ae7565b80601f016020809104026020016040519081016040528092919081815260200182805461025c90610ae7565b80156102a95780601f1061027e576101008083540402835291602001916102a9565b820191906000526020600020905b81548152906001019060200180831161028c57829003601f168201915b5050505050908060040180546102be90610ae7565b80601f01602080910402602001604051908101604052809291908181526020018280546102ea90610ae7565b80156103375780601f1061030c57610100808354040283529160200191610337565b820191906000526020600020905b81548152906001019060200180831161031a57829003601f168201915b5050505050908060050154908060060154908060070154905088565b826000856040516103649190610b55565b908152602001604051809103902060050160008282546103849190610b9b565b925050819055508160008560405161039c9190610b55565b908152602001604051809103902060060160008282546103bc9190610b9b565b92505081905550806000856040516103d49190610b55565b908152602001604051809103902060070160008282546103f49190610b9b565b9250508190555050505050565b336000866040516104129190610b55565b908152602001604051809103902060000160006101000a81548173ffffffffffffffffffffffffffffffffffffffff021916908373ffffffffffffffffffffffffffffffffffffffff160217905550836000866040516104729190610b55565b90815260200160405180910390206001019080519060200190610496929190610540565b50826000866040516104a89190610b55565b908152602001604051809103902060020190805190602001906104cc929190610540565b50816000866040516104de9190610b55565b90815260200160405180910390206003019080519060200190610502929190610540565b50806000866040516105149190610b55565b90815260200160405180910390206004019080519060200190610538929190610540565b505050505050565b82805461054c90610ae7565b90600052602060002090601f01602090048101928261056e57600085556105b5565b82601f1061058757805160ff19168380011785556105b5565b828001600101855582156105b5579182015b828111156105b4578251825591602001919060010190610599565b5b5090506105c291906105c6565b5090565b5b808211156105df5760008160009055506001016105c7565b5090565b6000604051905090565b600080fd5b600080fd5b600080fd5b600080fd5b6000601f19601f8301169050919050565b7f4e487b7100000000000000000000000000000000000000000000000000000000600052604160045260246000fd5b61064a82610601565b810181811067ffffffffffffffff8211171561066957610668610612565b5b80604052505050565b600061067c6105e3565b90506106888282610641565b919050565b600067ffffffffffffffff8211156106a8576106a7610612565b5b6106b182610601565b9050602081019050919050565b82818337600083830152505050565b60006106e06106db8461068d565b610672565b9050828152602081018484840111156106fc576106fb6105fc565b5b6107078482856106be565b509392505050565b600082601f830112610724576107236105f7565b5b81356107348482602086016106cd565b91505092915050565b600060208284031215610753576107526105ed565b5b600082013567ffffffffffffffff811115610771576107706105f2565b5b61077d8482850161070f565b91505092915050565b600073ffffffffffffffffffffffffffffffffffffffff82169050919050565b60006107b182610786565b9050919050565b6107c1816107a6565b82525050565b600081519050919050565b600082825260208201905092915050565b60005b838110156108015780820151818401526020810190506107e6565b83811115610810576000848401525b50505050565b6000610821826107c7565b61082b81856107d2565b935061083b8185602086016107e3565b61084481610601565b840191505092915050565b6000819050919050565b6108628161084f565b82525050565b60006101008201905061087e600083018b6107b8565b8181036020830152610890818a610816565b905081810360408301526108a48189610816565b905081810360608301526108b88188610816565b905081810360808301526108cc8187610816565b90506108db60a0830186610859565b6108e860c0830185610859565b6108f560e0830184610859565b9998505050505050505050565b61090b8161084f565b811461091657600080fd5b50565b60008135905061092881610902565b92915050565b60008060008060808587031215610948576109476105ed565b5b600085013567ffffffffffffffff811115610966576109656105f2565b5b6109728782880161070f565b945050602061098387828801610919565b935050604061099487828801610919565b92505060606109a587828801610919565b91505092959194509250565b600080600080600060a086880312156109cd576109cc6105ed565b5b600086013567ffffffffffffffff8111156109eb576109ea6105f2565b5b6109f78882890161070f565b955050602086013567ffffffffffffffff811115610a1857610a176105f2565b5b610a248882890161070f565b945050604086013567ffffffffffffffff811115610a4557610a446105f2565b5b610a518882890161070f565b935050606086013567ffffffffffffffff811115610a7257610a716105f2565b5b610a7e8882890161070f565b925050608086013567ffffffffffffffff811115610a9f57610a9e6105f2565b5b610aab8882890161070f565b9150509295509295909350565b7f4e487b7100000000000000000000000000000000000000000000000000000000600052602260045260246000fd5b60006002820490506001821680610aff57607f821691505b60208210811415610b1357610b12610ab8565b5b50919050565b600081905092915050565b6000610b2f826107c7565b610b398185610b19565b9350610b498185602086016107e3565b80840191505092915050565b6000610b618284610b24565b915081905092915050565b7f4e487b7100000000000000000000000000000000000000000000000000000000600052601160045260246000fd5b6000610ba68261084f565b9150610bb18361084f565b9250827fffffffffffffffffffffffffffffffffffffffffffffffffffffffffffffffff03821115610be657610be5610b6c565b5b82820190509291505056fea2646970667358221220801a56f9c5b456ef89a5cb76ee99cdbdda78df39dd84c029b16aec9d524361ad64736f6c634300080c0033",
  "immutableReferences": {},
  "source": "// SPDX-License-Identifier: MIT\npragma solidity >=0.4.22 <0.9.0;\n\ncontract PollContract{\n    struct PollData{\n      address poster;\n      string question;\n      string option1;\n      string option2;\n      string option3;\n      uint option1votes;\n      uint option2votes;\n      uint option3votes;\n    }\n\n    mapping(string => PollData) public PollDetails;\n\n    function addNewPoll(string memory PollID, string memory question, string memory option1, \n                           string memory option2,string memory option3)public{\n       PollDetails[PollID].poster = msg.sender;\n       PollDetails[PollID].question = question;\n       PollDetails[PollID].option1  = option1;\n       PollDetails[PollID].option2 = option2;\n       PollDetails[PollID].option3 = option3;\n    }\n\n    function vote(string memory PollID,uint option1,uint option2, uint option3)public{\n      PollDetails[PollID].option1votes += option1;\n      PollDetails[PollID].option2votes += option2;\n      PollDetails[PollID].option3votes += option3;\n    }\n\n}",
  "sourcePath": "/home/dell/Documents/solidity-practices/poll-dapp/contracts/Poll.sol",
  "compiler": {
    "name": "solc",
    "version": "0.8.12+commit.f00d7308.Emscripten.clang"
  },
  "schemaVersion": "3.4.6",
  "updatedAt": "2022-12-27T06:36:06.119Z",
  "networkType": "ethereum",
  "devdoc": {
    "kind": "dev",
    "methods": {},
    "version": 1
  },
  "userdoc": {
    "kind": "user",
    "methods": {},
    "version": 1
  }
}